:100000000C94A8010C94C5010C94C5010C94C50175
:100010000C94C5010C94C5010C94C5010C94C50148
:100020000C94C5010C94C5010C94481F0C941C2021
:100030000C947B190C94C5010C94C5010C94C5015A
:100040000C94C5010C94C5010C94C5010C94C50118
:100050000C94C5010C94021A0C94C5010C94C501B2
:100060000C94C5010C94C5010C94C5010C94C501F8
:100070000C94C5010C94C5010C94C5010C94C501E8
:100080000C94C5010C94C5010C94C5010C94C501D8
:100090000C94C5010C94C5010C94C5010C94C501C8
:1000A0000C94C5010C94C5010C94C5010600050013
:1000B0000400090008000700000000000000000024
:1000C0002A2B2800000000000000000000000000B3
:1000D00000000029000000002C1E342021222434BE
:1000E0002627252E362D3738271E1F202122232490
:1000F00025263333362E37381F0405060708090A2C
:100100000B0C0D0E0F101112131415161718191AC7
:100110001B1C1D2F3130232D350405060708090A45
:100120000B0C0D0E0F101112131415161718191AA7
:100130001B1C1D2F3130354C00000000000000005A
:1001400000000000000000000000000000000000AF
:100150000000000000000000000000007E0F00D43E
:10016000FFFFFFC700000078180343004300200092
:100170005000720061006300740069006300650054
:10018000000042034300680069006E0061007400D3
:100190007300750020004300680069006200610080
:1001A0002000280061007A0075006C006500650081
:1001B0002F006D006F006B0065007300750072000A
:1001C0006100290000000403090409025B00030127
:1001D00000A0FA0904000001030101000921110136
:1001E0000001224000070581030800010904010005
:1001F000020300000009211101000122220007056D
:100200008203200001070503032000010904020006
:10021000010300000009211101000122B6000705B9
:1002200084032000011201000200000008091201ED
:10023000CC0001010200010660FF0961A101096211
:10024000150026FF00952075088102096315002618
:10025000FF00952075089102C005010902A10185E2
:10026000020901A1000509190129081500250195B8
:1002700008750181020501093009311581257F9535
:10028000027508810609381581257F950175088159
:1002900006050C0A38021581257F9501750881062F
:1002A000C0C005010980A101850319012AB7001505
:1002B0000126B700950175108100C0050C0901A148
:1002C00001850419012AA002150126A002950175D5
:1002D000108100C005010906A1018506050719E086
:1002E00029E7150025019508750181020507190008
:1002F00029EF1500250195F0750181020508190106
:100300002905950575019102950175039101C005B7
:10031000010906A101050719E029E7150025019546
:1003200008750181029501750881010507190029E9
:10033000FF150026FF0095067508810005081901C4
:100340002905950575019102950175039101C0007C
:1003500011241FBECFEFDAE0DEBFCDBF11E0A0E079
:10036000B1E0E2E5F5E402C005900D92AE38B107C8
:10037000D9F722E0AEE8B1E001C01D92A637B2077E
:10038000E1F70E9483100C947E220C94000081E01F
:10039000089581E008950E94C901089508950E947A
:1003A000CE010895A5E0B0E0E8EDF1E00C94F32172
:1003B00049835A833091910189819A81311119C001
:1003C000662399F0222389F00E940308182F682FD2
:1003D00089819A810E94DF0769817A81812F0E9439
:1003E00067162596E3E00C940F220E94F107182F60
:1003F000F3CF0E94030869817A81F1CFFC01262F97
:10040000408151816281738184810E94D20108956B
:1004100081E00895CF93DF93EC0160E00E94FE013C
:10042000BE010E94CF01DF91CF910895E1E0F0E09D
:10043000DF0102C0AA0FBB1F6A95E2F7BD01DF0111
:1004400002C0AA0FBB1F4A95E2F76A2B01C0EE0F4C
:100450002A95EAF7962F9823961302C08E2B0895BB
:10046000E0958E230895242F462F682F80919501C3
:100470000E9416020E943F0708950E94930F08955C
:100480000E94970F089508950E94DC060E9443027F
:100490002FEF84E39CE0215080409040E1F700C0C2
:1004A000000008950E9444020E94261A08950E94A6
:1004B00044020E94371A08950F931F93CF93DF933E
:1004C0008C0161E00E94FE01EC01B8010E947913E9
:1004D000811106C080E0DF91CF911F910F910895A7
:1004E000B801CE010E94CB018823A1F3B801CE014F
:1004F0000E94AC17882371F3B801CE010E945E14EC
:10050000882341F3B801CE010E941E17882311F3FE
:10051000F8018281882361F0CA35FDE5DF0701F12A
:1005200058F4C115ECE5DE0791F0CE3DDC4591F0C5
:10053000C8010E94C701CFCFCC358DE5D80769F03F
:1005400090F0C73ADD45A1F70E945702C3CF0E9441
:100550005202C0CF0E94BC0CF7CF0E94F60BE8CF2E
:100560000E94000CE5CF0E94040CE2CF0E945719B4
:100570000E949A0308950E949E030E945C190895A8
:10058000B0E0A0E0E6ECF2E00C94EF21E82FF0E020
:10059000E854FF4FD490282F26952695269530E0D5
:1005A000F901E85AFE4F0491877010E0082E02C04E
:1005B000159507950A94E2F701701127F901E85B98
:1005C000FE4FE490F12C082E02C0F594E7940A94B3
:1005D000E2F791E0E922FF24F901E85CFE4FC491C3
:1005E000D0E002C0D595C7958A95E2F7C170DD27A6
:1005F0000115110519F081EE0E94E903E114F104DF
:1006000019F086EE0E94E9038D2D0E947F04E1140B
:10061000F10419F086EE0E9435040115110519F058
:1006200081EE0E943504CD2B19F08CE20E947F04EC
:10063000CDB7DEB7E7E00C940B22EF92FF920F9359
:100640001F93CF93DF93EC01162F0AE08881882354
:1006500009F454C0813009F04EC08981813099F489
:100660007E0122E0E20EF11C8A810E947F04E701F4
:100670002196812F815050F3EFE9FFE03197F1F798
:1006800000C00000F7CF823041F47E0182E0E80E26
:10069000F11C8A810E94E903EACF833041F47E0194
:1006A000E2E0EE0EF11C8A810E943504E0CF843036
:1006B00011F02196DDCF2A81229690E080E0AE01F4
:1006C0004F5F5F4F2053330B2A30310548F00197BD
:1006D00078F2EFE9FFE03197F1F700C00000F7CFC3
:1006E000089FB001099F700D1124C901860F971F43
:1006F0002981EA01E4CF0E94C002BACFCDB7DEB7AC
:10070000E6E00C940C2260E00E941D030895089519
:100710000E948703089581E008950E948B03089545
:100720000895CF93C82F0E9488038C2F0E948D03B9
:10073000CF91089580E00E94910308950E940818C7
:100740000E94910308950E940818909190019817B3
:1007500021F0809390010E9491030895ABE0B0E0F6
:10076000E4EBF3E00C94F4214F83588769877A8790
:100770008B8761110E94410B1E821D8285E0FE0164
:100780003796DE01119601900D928A95E1F78C81E2
:100790009D81892B61F449815A816B817C818D8196
:1007A0009E810E946A0A2B96E2E00C9410228981B5
:1007B0009A8189238F3F79F3CE0101960E94080226
:1007C0008111E9CFF0CFFC01808191810E94300836
:1007D0000895CF93C82F8823B9F08CEF8C0F813AFE
:1007E000A8F46C2F80910001909101010E947D1866
:1007F000882329F08C2F0E94010B0E94620B8C2F02
:100800000E94F90A0E94620BCF91089580E28C0F3A
:10081000883048F4C77081E001C0880FCA95EAF7B4
:100820000E94240BEFCFEBE5EC0FE33040F4F0E057
:10083000EB5BFE4F808190E00E943D18E5CFE8E53C
:10084000EC0FE73150F4F0E0EE0FFF1FE95EFE4FD2
:10085000808191810E945318D7CFC03FA8F28C2F7E
:100860000E9407110E94DA11CFCF882379F19CEF03
:10087000980F913A28F40E94010B0E94620B089590
:1008800090E2980F983050F4877091E001C0990F72
:100890008A95EAF7892F0E942A0BEFCF9BE5980FE4
:1008A000933028F490E080E00E943D18089598E588
:1008B000980F973128F490E080E00E945318089533
:1008C000803F20F00E9461110E94DA1108951F9369
:1008D000CF93DF93182FEB010E94E903209739F49F
:1008E000812F0E943504DF91CF911F9108958FE9E8
:1008F0009FE00197F1F700C000002197EFCF70E073
:1009000060E0893311F460E570E00E9467040895A7
:10091000882321F00E94240B0E94620B08958823F3
:1009200021F00E942A0B0E94620B0895B0E0A0E023
:10093000ECE9F4E00C94ED216C01D62FC72FFC01FB
:100940001281F580F2949FE0F9220E941A0BE82EA2
:100950008823B9F0E12E1123A1F08C2F807F803401
:1009600021F080E28D0F8830D0F08091600282FF0C
:1009700016C082E00E94C50B0E941A0B91E0E82E7F
:10098000E926BC2EB2948FE0B822FBE0FB1508F4F8
:1009900068C0EB2DF0E0E058FD4D0C94D721E12C20
:1009A000F0CF0C2F0F70C07F11F00295007F112344
:1009B00099F0002359F080E28D0F883010F0D111AA
:1009C00007C0802F0E94240B0E94620B8D2F41C014
:1009D000802F0E94340BF8CF8D2F0E943504002306
:1009E00009F43FC080E28D0F883010F0D11104C0AF
:1009F000802F0E942A0B03C0802F0E943A0B0E9476
:100A0000620B2FC00C2F0F70C07FC03211F0029507
:100A1000007FDD2381F0D13009F463C0112309F494
:100A20006DC0FF2009F463C0F601858180FFCECF41
:100A30008F7085835CC08091600282FD33C011237A
:100A400059F0002329F0802F0E94240B0E94620B92
:100A500080E00E94E90305C080E00E943504011196
:100A6000C7CFEB2DE850FF0B349720F40E940818F5
:100A70000E949103EE2089F00E94160B80FD0DC0AC
:100A8000F60112820E94100B0E945307C6010E94B9
:100A90009C060E94100B0E945F07CDB7DEB7E9E00D
:100AA0000C940922112389F0F11006C00E94440B16
:100AB000802B0E948804D5CF21E0F212F7CF0E944C
:100AC000440B802B0E944B0BCCCFF11006C00E9430
:100AD000580B802F0E948F04C4CF31E0F31609F227
:100AE000F6CF112331F085E08F1508F4BACF802FAF
:100AF000E0CF94E09F1508F4B4CFEBCFFF2049F38B
:100B0000D93349F4FFEF27EE33E0F1502040304075
:100B1000E1F700C000008D2F0E943504A2CF8C2F7A
:100B200086958695837069F0813009F09ACF8D2F74
:100B30009C2F9370111102C090E080E00E94531826
:100B400090CF8D2F9C2F9370111102C090E080E008
:100B50000E943D1886CF8D2F112329F00E94071186
:100B60000E94DA117ECF0E946111FACF8C2F837020
:100B700079F5111176CF4D2F429546954770440F68
:100B8000440F8D2F8F70042E01C0880F0A94EAF74E
:100B90002D2F2071D4FF07C02FE030E001C0220FBD
:100BA0004A95EAF72095C695C695C370822BC23048
:100BB00049F058F4C13019F00E942D0752CF0E941D
:100BC00027074FCF0E9433074CCF0E94240749CFFD
:100BD0008695112311F08C2F8170882309F441CF61
:100BE0004D2F429546954770440F440F8D2F8F70BF
:100BF000042E01C0880F0A94EAF72D2F2071D4FF2C
:100C000007C02FE030E001C0220F4A95EAF7209597
:100C1000C695C695C370822BC23049F058F4C130D6
:100C200019F00E947E071DCF0E9478071ACF0E94FC
:100C3000840717CF0E943F0714CFCF70112329F0EC
:100C40008C2F0E9453078D2F34CF8D2F0E948F043D
:100C50008C2F0E945F0705CFD23F51F160F4D03F47
:100C6000B9F0D13F81F0112309F449C0F110AECEA3
:100C70008C2F8F7121C0D33F11F1D43FA1F7809108
:100C8000600282FD26C08C2F8F71112311F314C0D6
:100C9000112349F084E08F1508F4E3CE8C2F8F7177
:100CA0000E946C07DECE95E09F1508F4DACEF6CFF1
:100CB0008C2F8F711111CDCF0E945307D2CE1123EB
:100CC00029F08C2F8F710E944A07CBCE0E944607D5
:100CD000C8CE112349F0CF718C2F0E94530763E0D7
:100CE0008C2F0E94A70BBDCE81E00E94C50BE1E0D6
:100CF000EF1508F0B6CE82E00E94C50BB2CEF1101F
:100D0000FFCE8C2F8F71A5CF0F931F93CF93DF93BF
:100D1000EC01688179818A810E943B088C010E94E4
:100D20008A070E942307B801CE010E949604DF9132
:100D3000CF911F910F910895CF93DF93EC018B8199
:100D40009C81892B29F08881998189238F3F51F4D7
:100D5000DF91CF910895CE010E948406CE010E94BA
:100D60000A02F6CFCE010E945C028111F4CF0E94EC
:100D70001A0B882369F38A81882351F380916002DA
:100D800082FFE6CF82E00E94C50BE2CF90E080E0D8
:100D90000E943D1890E080E00E9453180E94410B91
:100DA0000E94620B0E94F6110E94DA1108950E94BF
:100DB000090B0E94C60608950E94310B0E94D706B7
:100DC000089592959F70963091F058F4925F9F70BD
:100DD000923058F4803F19F030F4883E30F481E0CE
:100DE00008959A5FF4CF843FD1F380E00895883E60
:100DF000B0F3813FD1F7F3CFFC01808191810E9454
:100E000030080E94E1060895A5E0B0E0EAE0F7E0CE
:100E10000C94F4212596E2E00C941022A6E0B0E0B8
:100E2000E4E1F7E00C94F4212696E2E00C94102221
:100E300008950E94180708950E941907809396014B
:100E40000E94C606089508950E941C070895909177
:100E50009601892B0E941C07089590919601892381
:100E60000E941C0708959091960189270E941C07F3
:100E700008950E94180708950E94390708950E9456
:100E80003C07809395010E94C606089580E00E9469
:100E90003F07089591E001C0990F8A95EAF7892FDD
:100EA0000E943F07089521E030E001C0220F8A959B
:100EB000EAF780919501822B0E943F07089521E077
:100EC00030E001C0220F8A95EAF7209580919501C4
:100ED00082230E943F07089521E030E001C0220FE5
:100EE0008A95EAF78091950182270E943F0708952D
:100EF00090919501892B0E943F070895909195014B
:100F000089230E943F0708959091950189270E94A7
:100F10003F0708950895262F277091E001C0990F8B
:100F20002A95EAF723E0769567952A95E1F7FB0184
:100F3000EE0FFF1FE60FF71FE40FF51F50E040E034
:100F4000682F70E08191DF0111979B01042E02C090
:100F5000369527950A94E2F72170219528272923B1
:100F600028272C934F5F5F4F4330510559F7089561
:100F7000A82FA77023E0969587952A95E1F7FC01A5
:100F8000EE0FFF1FE80FF91FE60FF71F50E040E0DC
:100F900080E0219130E00A2E02C0369527950A9410
:100FA000E2F721703327042E01C0220F0A94EAF7DA
:100FB000822B4F5F5F4F4330510559F70895262F1D
:100FC000923070F4833060F4682F70E083E0989F73
:100FD000600D711D112442E951E0822F0E948B07A0
:100FE0000895292F923068F4833058F490E062E934
:100FF00071E033E0239F800D911D11240E94B807FA
:10100000089580E00895CF92DF92FF920F931F938F
:10101000CF93DF936C010091950180919601082B8D
:10102000C7E0D0E010E0FC2EC8010C2E02C0959560
:1010300087950A94E2F780FD0CC02197A0F7F12C68
:101040008F2DDF91CF911F910F91FF90DF90CF9067
:101050000895B6018C2F0E94790E019771F3F0CF9D
:10106000CF93DF93EC010E940308BE010E94790E2A
:10107000DF91CF9108951F93CF93DF93EB01909170
:101080009101992339F0CB010E943008DF91CF9173
:101090001F910895882369F0CB010E940308182F3F
:1010A000682FCE010E94DF07BE01812F0E94790EBA
:1010B000EDCFCB010E94F107182FF6CF1F93CF93EE
:1010C000DF93C091970116E0809198018C1304C0C2
:1010D000DF91CF911F910895D0E01C9FF0011D9FDB
:1010E000F00D1124E756FE4F4081518162817381DA
:1010F000848195810E940E072196C770E5CF4091AB
:10110000C9015091CA016091CB017091CC018091CD
:10111000CD019091CE010E940E0708951F93CF93A9
:10112000DF938091CE01807F09F049C08091CB018F
:10113000882309F444C080919701C091980160917F
:10114000C9017091CA01A091CC01B091CD01D62FF7
:10115000D72316E0C81799F190E0109711F0DF3F00
:1011600019F401968770F6CF189F9001199F300DE2
:101170001124F901E756FE4F41814713F2CF408118
:101180004613EFCF42814111ECCF438154814A1B7A
:101190005B0B483C510528F78091CE018F70806130
:1011A0008093CE01F901E256FE4F80818F708061FD
:1011B000808389EC91E00E949C060E945E08DF918A
:1011C000CF911F910895A1E1B0E0E9EEF8E00C9411
:1011D000EC218C0185E0F801DE011D9601900D9255
:1011E0008A95E1F7F801E28089ECC82E81E0D82EDB
:1011F0006091CC017091CD016115710509F44EC16A
:101200009091C9012091CA01892F82238F3F09F44F
:1012100045C140815181A380B480F090CB01F5019C
:10122000E61BF70BFF2009F4EAC08091CE01382FAE
:10123000307FE83CF10508F0A3C031116DC0FE2CF1
:10124000251316C0941314C0E11012C08F70806172
:101250008093CE010E947F08C6010E949C06809167
:10126000CE01F80185838F2D6196EAE00C94082267
:10127000A114B10429F0842F85238F3F09F027C1E1
:1012800080E0F82FF170DF2E80FF3CC08091970145
:101290002091980136E0821315C04D875E878D85B9
:1012A0009E850E943008292F22952F702230F0F061
:1012B000243018F59F70F1F0F8019581907FD1F4FA
:1012C000D12C1EC090E0389FF001399FF00D112401
:1012D000E756FE4F6181651306C06081641303C049
:1012E0006281E6120FC001968770D5CF9F7011F012
:1012F000882331F3805E883018F3C8010E949C0671
:10130000FD2CB1CFEE2009F4AECF8091CE018160EB
:101310008093CE01F12CA7CF251306C0941304C0EF
:10132000F801EE2009F487C0C8010E94FC0688235A
:1013300019F1EE2009F18091CE01803270F02091F8
:10134000C9013091CA0138872F831986BB86AA86C6
:101350008C87CE0107960E949C0686E0F801A9ECD6
:10136000B1E001900D928A95E1F70E948E080E94EB
:101370007F08FF24F39477CFC8010E949C06F9CF21
:10138000311113C07A2DB98AA88A6E2D89890E94DD
:10139000040789EC91E00E949C0686E0F601119218
:1013A0008A95E9F70E947F08B5CF25130FC09413E3
:1013B0000DC0E1100BC0F8018583C8010E949C0696
:1013C00086E0F60111928A95E9F74DCFC8010E9497
:1013D000FC06882389F2EE2079F28091CE018032DA
:1013E00008F4BBCF2091C9013091CA013A83298307
:1013F0001B82BD82AC828E83CE010196ACCFE83CCD
:10140000F10508F03EC0FE2CEE2009F4B5CF2513FF
:101410002AC0941328C08091CE0180FD1BC0982F54
:10142000907FC1F0F8018583903F31F0982F907F35
:10143000905F8F70892B8583C8010E949C0686E08F
:10144000F801A9ECB1E001900D928A95E1F70E94B4
:101450007F0809CF86E0F801A9ECB1E001900D9278
:101460008A95E1F700CFC8010E94FC06811175CF73
:101470008091CE0181608093CE01C8010E949C06BC
:10148000F2CE7A2DB98AA88A6E2D89890E94040726
:1014900086E0F60111928A95E9F7D9CFEE2009F49A
:1014A0006BCFC8010E94FC06F82E882309F464CF94
:1014B00086E0F801A9ECB1E001900D928A95E1F780
:1014C00089EC91E00E94E3030E948E08C0CF81E086
:1014D0008E25D7CEACE0B0E0E0E7FAE00C94F32143
:1014E0004F83588769877A878B879C87CE010796B9
:1014F0000E94E308882369F08A859B85892B39F04F
:101500004F815885842F85238F3F09F06BC016E0EB
:101510005FC086E0FE013796DE01119601900D92C4
:101520008A95E1F78A859B85892B89F38F81988538
:1015300089238F3F61F32091980130E0C901019622
:1015400087709927409197014817190671F40E94F6
:10155000DC06109298011092970186E0E9ECF1E028
:10156000DF011D928A95E9F7D2CF96E0929FD001D4
:10157000939FB00D1124A756BE4FFE0131960190E6
:101580000D929A95E1F7809398010E945E08BFCF73
:10159000819FC001112487569E4F0E94E308882333
:1015A000E9F0E09197011E9FF0011124E756FE4FEC
:1015B0004081518162817381848195810E940E07EF
:1015C0008091970190E00196877099278093970109
:1015D00080919701909198018913DACF2C96E3E0DE
:1015E0000C940F2269857A858B859C850E940E0755
:1015F0008ECF682F80910001909101010E94FD180B
:101600000895682F80910001909101010E940B19AB
:10161000089580910001909101010E941919089587
:101620008091EF0185958595859508958091EF01CD
:10163000877008959091EF01977081E009F480E040
:10164000089580911202089590911202892B80933F
:10165000120208958095909112029823909312029D
:10166000089510921202089590911102892B80938F
:101670001102089580959091110298239093110280
:1016800008951092110208958091F001089508952F
:101690000E94470B08959091600292FF08C09091BC
:1016A000F001981721F08093F0010E94480B0895F3
:1016B0008091F001882329F01092F00180E00E94CF
:1016C000480B0895CF93DF93E0910001F091010161
:1016D000809112028083E0910001F09101018081EC
:1016E00090911102892B80839091F001992381F0D0
:1016F000E0910001F09101018081892B808380912C
:101700000001909101010E94691881110E94580BFB
:10171000C0910001D091010140E250E06FEC71E016
:10172000CE010E942F22892B59F080E2FE01AFECFE
:10173000B1E001900D928A95E1F7CE010E94151853
:10174000DF91CF91089508950E94A30B0895909181
:10175000600292FF11C098E0899F90011124622BD2
:101760006093EF010E9453078091EF018595859565
:1017700085950E94A40B08950E9453070895109226
:10178000EF0180E00E94A40B08959091EF018095F5
:1017900089238093EF01282F277091F4282F082E9A
:1017A000000C330B9217130659F09091600292FFD0
:1017B00007C08595859585950E945F070E94BF0BA0
:1017C00008959091600292FB222720F9281769F072
:1017D00080FB92F99093600280915F029091600289
:1017E0000E94330C82E00E94C50B08958091600234
:1017F00082FB882780F991E089270E94E10B0895F8
:1018000081E00E94E10B089580E00E94E10B0895C1
:101810006FEF7FEF90E080E00E946822089590E0F3
:1018200080E00E944422883E9E4F19F40E941413C7
:10183000089580E0089582E090E00E943C2208959F
:1018400083E090E00E943C220895CF9384E090E0F2
:101850000E943C22C82F82E290E00E943C22982FF6
:101860008C2FCF910895CF93C92F682F84E090E0FB
:101870000E944A226C2F82E290E00E944A22CF917D
:101880000895AB01BC018FE090E00E945C220895B6
:10189000AB01BC0183E190E00E945C22089560E00E
:1018A00070E0CB010E94480C089560E070E0CB012D
:1018B0000E94410C0E944F0C089568EE7EEF90E06C
:1018C00080E00E94682260E082E090E00E944A226C
:1018D00060E083E090E00E944A221092960160E06E
:1018E00084E090E00E944A2264E082E290E00E945C
:1018F0004A2260E085E090E00E944A2260E086E0B3
:1019000090E00E944A226FEF87E090E00E944A2216
:1019100040E050E0BA0188E090E00E945C2260E084
:101920008DE090E00E944A2240E050E0BA0188E158
:1019300090E00E945C2260E087E190E00E944A22F1
:1019400040E050E0BA018CE190E00E945C2270E03F
:1019500060E080E290E00E94682240E050E0BA013E
:1019600088E190E00E945C2280E00E942D130E949A
:101970005C130E94550C08950E945D0C0895682F19
:101980008EE090E00E944A2208950E94E719609339
:10199000190270931A0280931B0290931C026093A9
:1019A00015027093160280931702909318020895FF
:1019B000089508950E94D90C089508950E94DD0CA1
:1019C000089588E59FE00E94FE170E94D80C0E94AF
:1019D000DA0C089581E008950E94EA0C08950895B4
:1019E00008950E94EF0C0E94F00C08950E94770F5A
:1019F0000E94900308950E94D2190E946C130E94C5
:101A0000F90F0E94F60C0E94DE0C0895AAE0B0E0E7
:101A1000ECE0FDE00C94EB210E940910C82E81112E
:101A20000E94C50C33E1A32E32E0B32E10E000E09B
:101A3000902E802F0E949A0FE82EF501F1905F0101
:101A4000F81609F443C080911D0281FD0E94A00F89
:101A50008F2D8E25F82FF170FF2E80FD30C081FD77
:101A600030C082FF33C092E0D92E24E0F22E0E94D3
:101A7000EC0C882399F0DE829F82EF2081E009F44C
:101A800080E088870E94DB198160782F9A87898798
:101A90004E815F8168858A850E94AE03F801ED5E04
:101AA000FD4F8081F826F08281E0C11001C080E006
:101AB0002A96EBE00C94072201E010E0B9CFD12C7C
:101AC000D6CFDD24D39482E0F82ED1CF013011059A
:101AD00099F78FEF89838A831B820E94DB198160CB
:101AE000782F9D838C8349815A816B818D810E94DF
:101AF000AE03DACF0E94060D0E9418120E94A303C3
:101B00000895CF93DF930E947E0EEC01811521E5AD
:101B1000920708F042C0811530E5930708F09DC098
:101B2000883E910530F5803E910508F092C0883AD4
:101B3000910588F4853A910508F084C081309105BB
:101B400009F487C0009709F484C0049708F081C0A5
:101B5000D0E0C0E07EC08F3B9105D0F7C85AD0E0FE
:101B6000CC0FDD1FC85BDE4F0990D881C02DD46437
:101B700070C08115904250F4C11581E0D80708F07B
:101B800068C0C03FD10520F3D06563C0C11590E4A3
:101B9000D907F0F2DF70D06A5CC0811525E59207A5
:101BA00000F5811534E5930708F08BC0811543E5F6
:101BB000940708F073C0C11582E5D80708F469C01E
:101BC000CE018370992721E030E002C0220F331F3D
:101BD0008A95E2F7C695C69580E2C89FE001112478
:101BE00054C0C11599E5D907A8F4C11528E5D20755
:101BF00008F06CC0C11536E5D30708F0A9CF8C2FCB
:101C00000E94150FC82FD0E0DC2FCC27CC27DF7126
:101C1000D0621FC0C1154AE5D40708F45CC0CE01EC
:101C200090568115904208F093CF8D2F8F710E94AE
:101C3000150F90E0982F882788279F719C012C2BE7
:101C4000E901E6CFC55AD0E0CA58DE4FC881D0E0DE
:101C5000D064CE01DF91CF910895E4E09695879509
:101C6000EA95E1F783702C2F26952695237040E2A4
:101C7000249F90011124382B8C2F8370C1E0D0E079
:101C800002C0CC0FDD1F8A95E2F7C22BD32BDC6894
:101C9000E0CFDC2FCC27C16FD06ADBCF83709927D0
:101CA00021E030E002C0220F331F8A95E2F7C6958B
:101CB000C69590E2C99FE0011124C22BD32BDA68AC
:101CC000C8CFD82FCC27C46FD06AC3CFDC2FCC2786
:101CD000C06FD06ABECF8C2F8F700E94150F34E07A
:101CE000D695C7953A95E1F7CF709C2FEC01D06956
:101CF000B0CF0E9467160E94810D08958238910529
:101D0000B1F1B0F48133910509F475C048F489321A
:101D1000910509F469C08A32910509F473C00895E8
:101D20008533910509F459C08933910501F108956E
:101D3000833E9105A9F138F4803E9105F9F0823E89
:101D4000910549F10895863E9105A9F1873E9105D7
:101D5000C9F1843E910519F52091600221FF1FC051
:101D600080915F0284FD14C087EE90E00895209179
:101D70005F022370A1F080EE90E0089520915F0251
:101D800020FD47C03091600230FF09C024FF44C0ED
:101D900090E080E004C020915F0222FDF7CF08951B
:101DA00020915F0222FD3BC03091600230FDE3CF05
:101DB00024FFF5CFEDCF20915F0223FFF0CF24FD6C
:101DC000E7CFD2CF20915F0223FD2CC0309160027B
:101DD00031FFEECF84EE90E0089520915F0225FF61
:101DE000DECF89E290E0089520915F0225FFD7CFF2
:101DF00085E390E0089520915F0226FFD0CF8AE22C
:101E000090E0089520915F0226FFC9CF81E390E022
:101E1000089589E390E0089583EE90E0089582EEBE
:101E200090E0089586EE90E0089590915F0292FF11
:101E300006C0282F28712830F9F4877F846093FF2B
:101E400006C0282F28712831F1F4877E8461209103
:101E5000600220FF06C0382F38713830D9F4877FF0
:101E6000816021FF06C0282F28712831D1F4877E98
:101E7000816194FD877E0895282F24712430F9F61E
:101E80008B7F8860DCCF282F2471243101F78B7E73
:101E90008861DDCF382F3171313019F78E7F88603E
:101EA000E0CF282F2171213121F78E7E8861E1CF8B
:101EB00080E008950E94080C08950E9409102FEFF9
:101EC00086E791E0215080409040E1F700C000009B
:101ED0000E94091080E00E949A0F80FF04C00E94B7
:101EE0005A0F0E94261A08950E945D0F08950E94BD
:101EF0000F0C811102C00E94BC0C0E941B0C80932D
:101F00001D020E94250C9093600280935F020E9444
:101F1000740F0E94200C0E942407809195010E945A
:101F20003C07089508950E94920F089508950E9415
:101F3000960F0895E82FF0E0ED59FD4F8081089548
:101F400008951F93CF93DF9329E731E0C1E0D0E0FC
:101F5000D90150E040E08D918F3F91F0E82FE2955C
:101F6000EF70F0E011A18F70BE0101C0660F8A957D
:101F7000EAF7962F9095912391A382A1862B82A3B5
:101F80004F5F5F4F4330510531F72D5F3F4F81E089
:101F90002F373807E9F6DF91CF911F910895CF933E
:101FA000DF93AC01A62FB0E083E0689FF00111241D
:101FB000E758FE4F73E081E060E091919F3F81F030
:101FC000C92FC295CF70D0E028A130E09F7002C029
:101FD000359527959A95E2F7982F20FD90E0692B8B
:101FE000880F715051F7A40FB51F6C93DF91CF91FB
:101FF00008950E94A10F1092640210926302109241
:1020000062021092610282E00E943F100E943D0233
:102010000895A2E0B0E0EFE0F0E10C94F3211A8221
:10202000198260E0CE0101960E94CF0F61E0CE01DF
:1020300001960E94CF0F42E050E0BE016F5F7F4FDC
:1020400081E692E00E942F2211E0009709F410E04F
:10205000892B31F089819A81909362028093610289
:10206000212F42E063E672E081E692E00E94401098
:102070000E944002812F2296E3E00C940F220895E3
:10208000FF920F931F93CF93DF93F82E092F162FF4
:10209000D72FC42F222349F081E0809320020E9491
:1020A000DB1990931F0280931E02809120028823E7
:1020B000A1F080911E0290911F020E94F3190597D2
:1020C00060F0EF2DF02FA12FBD2FCE0FDF2FD11DF0
:1020D000EC17FD0739F410922002CDB7DEB7E5E02A
:1020E0000C940D2281918D93F3CF0E94221C0E94AB
:1020F000FB0C0E942F1C08950E94341C0E947A0D34
:102100000E944E1C08950E9474190E94081C0E948F
:10211000E10C0E9475100E947C100E94F10CFBCF14
:102120008091270280FF0DC06091070170E0660F6B
:10213000771F6038710570F56115710569F1862F9B
:10214000089581FF07C06091070184E0689FB00196
:102150001124EFCF6091070182FD0AC08091260211
:102160008823A9F02091060160910701821710F0E1
:1021700088E0ECCF869FC001112433E0880F991FBF
:102180003A95E1F7622F70E00E94C321D2CF68E058
:1021900070E0D5CF8FE7089581E008958091270200
:1021A00080FF0CC06091030170E07595679575958F
:1021B00067956115710549F1862F089581FF06C065
:1021C0006091030170E075956795F3CF609103010D
:1021D00082FD0BC0909125029923A1F0609102012C
:1021E00080910301961738F0682F70E06038710510
:1021F00000F38FE70895899FC001112470E00E94C9
:10220000C321F4CF61E070E0D7CF81E00895803F33
:1022100031F40E949010819580932B020895813FA4
:1022200019F40E949010F8CF823F31F40E94901070
:10223000819580932A020895833F19F40E9490109B
:10224000F8CF893F29F40E94CE1080932C02089584
:102250008A3F21F40E94CE108195F7CF8B3F31F455
:102260000E94CE10819580932D0208958C3F19F421
:102270000E94CE10F8CF9CE0980F953070F4845FE8
:10228000990B21E030E001C0220F8A95EAF7809196
:102290002902822B8093290208958D3F31F4809189
:1022A000270281608093270208958E3F21F4809158
:1022B00027028260F7CF8F3FB9F7809127028460B1
:1022C000F1CF40912A02803F59F480912B0287FF81
:1022D0000DC010922B0241110BC01092260208C0B3
:1022E000813F81F480912B0218169CF3442381F0E6
:1022F00080912C0290912D02892B09F05AC01092E6
:1023000025020895823F49F447FFF0CF10922A0238
:1023100080912B028111ECCFE0CF833F19F414168A
:10232000ACF3E4CF90912C02893F29F41916F4F60E
:1023300010922C02DBCF8A3F19F497FFD7CFF8CF4A
:1023400090912D028B3F29F497FFD0CF10922D0250
:10235000CDCF8C3F19F41916CCF3C8CF9CE0980F61
:10236000953090F4845F990B21E030E0B90102C010
:10237000660F771F8A95E2F7CB018095909129022D
:10238000892380932902B2CF8D3F31F480912702B7
:102390008E7F80932702AACF8E3F21F4809127025F
:1023A0008D7FF7CF8F3F09F0A1CF809127028B7FE0
:1023B000F0CF08950E94DB199C0190912A02809130
:1023C0002B02982B21F0309324022093230290912A
:1023D0002C0280912D02982B21F030932202209321
:1023E000210288E292E00E942F18089586E0E8E238
:1023F000F2E0DF011D928A95E9F710922602109211
:102400002502109227020895FC01828181110EC0DD
:10241000838181110BC08481811108C091E0858185
:10242000811101C090E0892F8170089581E0FCCF77
:10243000A6E0B0E0EEE1F2E10C94F32186E0E8E200
:10244000F2E0DE01119601900D928A95E1F710926B
:102450002A0210922B0210922C0210922D028B81D4
:102460009C81892B89F080912302909124020E9403
:10247000F319AC01909126029923C9F180910801CA
:102480008417150608F440C08D819E81892B91F038
:1024900080912102909122020E94F319AC01909147
:1024A0002502992309F471C080910401841715064F
:1024B00008F479C0BE016F5F7F4F88E292E00E940E
:1024C0002B19811105C088E292E00E94041281114B
:1024D0000E94DA1186E0FE013196A8E2B2E0019096
:1024E0000D928A95E1F72696E3E00C940F22209155
:1024F00009018AE0289F900111242417350720F64E
:102500009F5F9093260202C09F3FD1F71B8111234A
:1025100059F00E9490109FEF11160CF491E0899FE2
:10252000802D112480932A021C81112359F00E94CE
:1025300090109FEF11160CF491E0899F802D1124CB
:1025400080932B0230912A02332309F49DCF2091EE
:102550002B02222309F498CF45EB3403C001112448
:10256000992359F090932A0245EB240390011124FA
:10257000332339F030932B0287CF81E080932A02F6
:10258000F3CF81E080932B027FCF209105018AE079
:10259000289F900111242417350708F08BCF9F5FE7
:1025A0009093250202C09F3FD1F71D81112359F05E
:1025B0000E94CE109FEF11160CF491E0899F802DA0
:1025C000112480932C021E81112359F00E94CE10F9
:1025D0009FEF11160CF491E0899F802D11248093B8
:1025E0002D0230912C02332309F464CF20912D0267
:1025F000222309F45FCF45EB3403C0011124992352
:1026000059F090932C0245EB2403900111243323BD
:1026100039F030932D024ECF81E080932C02F3CF1E
:1026200081E080932D0246CF83E290E00E943C221D
:10263000823289F484E290E00E943C22823059F494
:1026400085E290E00E943C2291E0843209F090E023
:10265000892F8170089580E0FCCFCF93C82F6FEF52
:10266000811162E283E290E00E944A226FEFC11181
:1026700062E084E290E00E944A226FEFC11164E2BE
:1026800085E290E00E944A22CF910895089586E263
:1026900090E00E943C22682F70E090E080E0089576
:1026A0000895CF93C62F0E9450136C2F86E290E0BE
:1026B0000E944A22CF91089580E00E942D1360E08D
:1026C00070E0CB010E9451130E94EB150E94C416CA
:1026D00081E00E942D1308950E9446130E94471323
:1026E0000E9450130E941413811102C00E945C13B7
:1026F0000895CF93FB01C281CC2309F19C012251A3
:102700003F452031310520F582510E94D416C0E0AA
:102710008C2FCF91089581E00E94530743E062E03F
:1027200081E00E943302F3CF81E00E945F0743E023
:1027300062E081E00E943302EBCF82E0F6CF80318D
:10274000FFE59F0789F381319F45B9F3C1E0E0CFF1
:102750008031EFE59E07F9F281319F45C9F682E0AD
:10276000DBCF2FEFFC01208308951F93CF93DF93DE
:10277000EC01162FE881E150E33108F056C0F0E09B
:10278000E457FD4D0C94D721198289E08A83612F8B
:10279000CE010E94DB1ADF91CF911F9108958981AC
:1027A0008230B1F0833059F08130A9F40E94E719EA
:1027B0000E94DD216A837B838C839D83E8CF80E048
:1027C0000E949A0F8A8381E00E949A0F8B83DFCF49
:1027D0000E944713EDCF612FCE010E94B113D7CFD6
:1027E00089818230C1F76A817B818C819D810E94C1
:1027F000DD210E945113CBCF4B816A8189810E94D8
:10280000AD159827892798279D838C83C0CF2C816D
:102810003D813227232732274B816A8189810E949B
:10282000CF15B5CF0E94EB15B2CF8FEF8883AFCF16
:102830000E9475168983ABCF0E9477169827892747
:1028400098279A838983A3CF6B8170E089819A81CD
:10285000AE014C5F5F4F9827892798270E947A1610
:1028600096CF6B8170E089819A81AE014C5F5F4F9A
:102870009827892798270E949F1689CF0E94C416FF
:1028800086CF0E949B15D6CF6B8170E089819A819B
:10289000AE014C5F5F4F9827892798270E94211629
:1028A00076CF6B8170E089819A81AE014C5F5F4F7A
:1028B0009827892798270E94441669CFCF93DF93E2
:1028C000EC01FB018281882309F433C1C330FDE5AB
:1028D000DF07C0F5CA3F9CE5D90730F49E012250BE
:1028E0003C4524313105B0F50E94250C90936002DF
:1028F00080935F02C1318CE5D80709F4EEC008F07F
:1029000069C0C930ECE5DE0709F4D5C0C8F5C530AB
:102910008CE5D80709F4C7C000F5C330ECE5DE0745
:1029200009F4B9C008F0BBC0C230DC4509F4ADC041
:1029300080915F02909160020E94330C0E94DC063D
:1029400080E008C0C136EDE5DE0771F2C53AFDE56D
:10295000DF0751F2DF91CF91089580915F0280628D
:10296000C7309CE5D90709F493C080915F0280616C
:10297000C830DC4508F48CC080915F02806488C058
:1029800080915F028B7FCD30FCE5DF0709F480C0CA
:1029900098F480915F028E7FCB309CE5D90709F4D3
:1029A00077C080915F028C60CC30DC4508F470C049
:1029B00080915F028D7F6CC080915F028F7ECF30EF
:1029C000FCE5DF0709F464C008F47BC080915F0276
:1029D0008F7D5EC0CD3F9CE5D90709F47AC050F5E4
:1029E000C531FCE5DF0709F486C098F480915F02E9
:1029F000837FC3319CE5D90709F44AC008F471C04C
:102A00000E94DC0690915F02892F97FB87F980581E
:102A10003FC0CB3FFCE5DF0709F449C008F055C0D3
:102A2000809160028160CA3FDC4509F081CF8093CC
:102A300060027ECFC130EDE5DE0709F468C0A8F47E
:102A4000CF3F8CE5D80709F452C0809160028360C3
:102A5000C115DD4560F380916002982F90959170CB
:102A60008E7F892B90FB81F9E2CFC136EDE5DE0741
:102A700009F451C0C53AFDE5DF0709F453C0C2307F
:102A8000DD4509F055CF80E043C080915F02816051
:102A900080935F024DCF80915F028260F9CF809179
:102AA0005F028460F5CF80915F028860F1CF8091F2
:102AB00060028260BCCF0E94DC0680915F02806869
:102AC000E7CF80915F02877FE3CF809160028E7FA6
:102AD000AECF809160028D7FAACF80915F028F7B05
:102AE000D7CF0E94DC0680915F028F77D1CF809193
:102AF00060028C7F9CCF80915F0282FB992790F9C6
:102B000021E0922790FB82F990FB83F9C1CF81E00D
:102B10000E94BF0C0DCF90915F02892F8F7E94FF92
:102B20008061B6CF90915F02892F8E7F90FF816088
:102B3000AFCF81E00FCF84E0089550E0440F551FE0
:102B400096E0699F400D511D11249CE0899F400D26
:102B5000511D1124CA01879608950F931F93CF9397
:102B6000DF938430C8F46230B8F44330A8F40E9494
:102B70009D158C010E943C22C82FD0E0DC2FCC2771
:102B8000C80101960E943C229E01282BC901DF91B9
:102B9000CF911F910F91089590E080E0F8CF0F93AF
:102BA0001F93CF93DF93122F032F843078F462307A
:102BB00068F4433058F40E949D15EC01602F0E9488
:102BC0004A22612FCE0101960E944A22DF91CF91C5
:102BD0001F910F910895EF92FF920F931F93CF9340
:102BE000DF930CEA10E0C0E07801D0E0F701259116
:102BF00034914D2F60E08C2F0E94CF1582E0E80EBB
:102C0000F11CDF5FD33091F7780186E0E80EF11C0C
:102C1000D0E0F701259134914D2F61E08C2F0E9477
:102C2000CF1582E0E80EF11CDF5FD33091F7045F2F
:102C30001F4FCF5FC430C1F6CDB7DEB7E6E00C94CE
:102C40000C22EF92FF920F931F93CF93DF93EC012F
:102C50008A017C01E60EF71ECE018796CE15DF05B0
:102C600029F4CDB7DEB7E6E00C940C22C033D105D1
:102C700040F40E943C22F80180830F5F1F4F219691
:102C8000EBCFF8011082F9CFB0E0A0E0EAE4F6E182
:102C90000C94EE217C016A018C01060F171FEC01D8
:102CA000CE018796C017D10729F4CDB7DEB7E8E08B
:102CB0000C940A22C033D10540F4FE01EE19FF093D
:102CC000EC0DFD1D60810E944A222196E9CF462F1E
:102CD000843040F4723030F4633020F4672F0E9467
:102CE000AD15089590E080E0089580E1089589EAA7
:102CF00093E00895EF92FF920F931F93CF93DF938A
:102D0000EC018A017C01E60EF71ECE01895A9F4F25
:102D1000CE15DF0529F4CDB7DEB7E6E00C940C2222
:102D2000C93A23E0D20740F40E943C22F801808394
:102D30000F5F1F4F2196E9CFF8011082F9CFB0E065
:102D4000A0E0E5EAF6E10C94EE217C016A018C0139
:102D5000060F171FEC01CE01895A9F4FC017D107EC
:102D600029F4CDB7DEB7E8E00C940A22C93A23E093
:102D7000D20740F4FE01EE19FF09EC0DFD1D608144
:102D80000E944A222196E7CFCF93DF93C7E5D0E098
:102D900060E0CE010E944A222196C11584E0D80746
:102DA000B9F7DF91CF910895A4E0B0E0EAEDF6E144
:102DB0000C94EF21F82E8FE08F1548F18FEF93E000
:102DC0000E943C22811123C007E510E0F11023C0CE
:102DD00019821A821B821C82DD24D39478018FEF22
:102DE000E81AF80AC8010E943C2289831A828823C3
:102DF00071F09FEF980F9330D8F48A83D9820E5FD9
:102E00001F4FC7010E943C228B83811112C0249660
:102E1000E7E00C940B22011584E01807C1F3C80108
:102E20000E943C22811101C0FA940F5F1F4FCECF48
:102E30008701CE0101960E948303D0CFCF93DF9309
:102E4000EB0186319C4511F50E94210B9A81992353
:102E500099F08A7A91E009F490E090932E02811122
:102E600009C089E20E94F90A0E94620B80E0DF91AA
:102E7000CF91089585E3F6CF80912E02811104C091
:102E800089E20E94010BF0CF85E3FBCF81E0EFCF19
:102E90000F931F93CF93DF93C42FD22FFC01828116
:102EA0008823C9F0409331020E94DB1990933002CD
:102EB00080932F0280E28C0F883040F4C77081E04D
:102EC00001C0880FCA95EAF70E948804DF91CF916C
:102ED0001F910F91089510913102141332C0809107
:102EE0002F02909130020E94F319883C910548F519
:102EF000C0E2CD0F1D17B9F080E2810F883040F499
:102F0000177081E001C0880F1A95EAF70E948F04BC
:102F1000C83048F481E09D2F977001C0880F9A95C2
:102F2000EAF70E948804802F0E947F04C83070F660
:102F3000D77081E001C0880FDA95EAF70E948F040C
:102F4000C5CF80E28C0F883008F6C77081E001C0E1
:102F5000880FCA95EAF7F2CF0F939C01CB01233F6C
:102F60004CE5340759F1A8F4283DFCE53F0701F191
:102F7000293D4CE53407D1F1273D3C4591F406E26B
:102F800021EE41EE67ED7CE50E94481780E00F914D
:102F90000895253FFCE53F07E9F0B0F0263F3C45AA
:102FA000F9F0FC018281882339F110923102EFCFD0
:102FB00007E225EE45EE68ED7CE5E6CF06E221EE80
:102FC00040EE63EF7CE5E0CF07E225EE44EE64EFF0
:102FD0007CE5DACF06E221EE42EE65EF7CE5D4CF68
:102FE00007E225EE46EE66EF7CE5CECF08E221E073
:102FF00045EE69ED7CE5C8CF81E0C9CF90938F01A4
:1030000080938E010895909337028093360208953D
:10301000E0913602F0913702309729F00190F0816B
:10302000E02D0995089580E00895E0913602F09131
:103030003702309799F020911601222359F0209100
:103040005F0227FF07C0DC012C9111962C9311978A
:1030500026E02C930280F381E02D09950895E091FC
:103060003602F0913702309739F022E0DC012C93E0
:103070000480F581E02D0995089520913402309166
:1030800035022817390771F0909335028093340286
:10309000E0913602F0913702309721F00680F781F7
:1030A000E02D0995089520913202309133022817BE
:1030B000390771F09093330280933202E091360227
:1030C000F0913702309721F00084F185E02D0995C9
:1030D0000895FC01329680911601882321F0809199
:1030E0005F029EE187FF96E080E0915008F408952A
:1030F00021912223D1F38F5FF8CF662301F1209134
:1031000016012223F1F020915F0227FF1AC0462FFB
:103110004695469546954E3190F4677021E030E033
:1031200002C0220F331F6A95E2F7840F911DFC0144
:10313000828190E02823392381E0232B69F480E009
:103140000895FC01329608962191261721F0E81780
:10315000F907D1F7F4CF81E008959C01FC01329684
:103160009FEF80E04191461751F09F3F19F44111C4
:1031700001C0982F8F5F8630A9F79F3F09F408950B
:10318000290F311D97FD3A95F90162830895FC01DD
:10319000329608962191261303C0DF0111971C92E5
:1031A000E817F907B9F70895E62FE695E695E6954D
:1031B000EE3168F4E80FF92FF11D677021E030E07F
:1031C00001C0220F6A95EAF78281822B82830895DB
:1031D000E62FE695E695E695EE3170F4E80FF92FC7
:1031E000F11D677021E030E001C0220F6A95EAF717
:1031F000209582812823228308952091160122237D
:1032000039F020915F0227FF03C00E94D41808956F
:103210000E94AD18089520911601222339F02091C3
:103220005F0227FF03C00E94E81808950E94C71894
:103230000895FC01329680911601882351F0809107
:103240005F0287FF06C08EE1DF011D928A95E9F7D4
:10325000089586E0F9CF46E050E00E942F2221E059
:10326000892B09F420E0822F089508950E943519D2
:103270000895811106C081E0809338020E943619BA
:10328000089582E0F9CF83E0809338020E943619D6
:1032900008950E943919089581E0809338020E94B0
:1032A000361908950E944C190895089508950E94B2
:1032B00056190895089508950E94551908950E9479
:1032C0005A190E9409100E945B1980E00E949A0F0F
:1032D00091E0811107C081E00E949A0F91E0811175
:1032E00001C090E0892F089585B7806885BF85B7B4
:1032F000806885BF08951F921FB61F9211248F9377
:103300009F93AF93BF9380913902811113C0809135
:10331000650290916602A0916702B09168024196A1
:10332000A11DB11D8093650290936602A093670270
:10333000B0936802BF91AF919F918F911F901FBE74
:103340001F90189580916D02843031F10E94B60271
:103350001092390288E190E020E40FB6F894A89525
:10336000809360000FBE2093600083B7817F8460EC
:1033700083BF83B7816083BF7894889583B78E7F3E
:1033800083BF0FB6F894A895809160008861809300
:103390006000109260000FBE08950E94DC060E943B
:1033A000BB02089582E084BD93E095BD9AEF97BD7E
:1033B00080936E0008952FB7F894809165029091E4
:1033C0006602A0916702B09168022FBF08952FB7DF
:1033D000F894609165027091660280916702909105
:1033E00068022FBF08959C014FB7F8948091650241
:1033F00090916602A0916702B09168024FBF821B54
:10340000930B089578941F921FB61F9211248F93E7
:103410009F93AF93BF938091650290916602A091B4
:103420006702B09168020196A11DB11D80936502EB
:1034300090936602A0936702B0936802BF91AF9128
:103440009F918F911F901FBE1F90189587E797E758
:10345000909301088093000888E19AE00FB6F894F1
:10346000A895809360000FBE90936000FFCF88E125
:103470009AE00FB6F894A895809360000FBE9093E1
:103480006000FFCF80915D02089508959C0184E063
:103490008093E9009FEF8091E800915085FD06C080
:1034A00085ED8A95F1F700009111F5CF8091E80044
:1034B00085FF0CC050E040E066E070E0C9010E946A
:1034C000ED1C8091E8008E778093E8000895CF93FB
:1034D000DF93EC01809116018823B1F180915F02A6
:1034E00087FF32C060E284E08093E9008FEF909123
:1034F000E800815095FD06C095ED9A95F1F7000022
:103500008111F5CF8091E80085FF1BC080911601E5
:1035100070E050E040E0811104C050E040E068E01D
:1035200070E0CE010E94ED1C8091E8008E778093C0
:10353000E80080E2FE01ADE3B2E001900D928A95D1
:10354000E1F7DF91CF91089568E081E0CDCF8093DE
:103550003A0270933C0260933B0280916D0284308A
:10356000F9F48093E9008FEF9091E800815095FD88
:1035700006C095ED9A95F1F700008111F5CF809185
:10358000E80085FF0DC050E040E063E070E08AE3B2
:1035900092E00E94ED1C8091E8008E778093E80015
:1035A0000895BC0184E00E94A71A0895BC0183E03D
:1035B0000E94A71A0895CF93FC01603221F58091F3
:1035C0006D02843001F5C091E900CF702091EC00CC
:1035D000922F917020FD90E8C92B82E08093E90042
:1035E0008091E80080FF0CC050E040E060E270E0B5
:1035F000CF010E94ED1C8091E8008E778093E80057
:10360000CF70C093E900CF91089580916C02811131
:1036100009C00E94CC1E0E94291F8091E200846094
:103620008093E200089510926C0208950E944C1954
:1036300008956091690281E0611101C080E00E94FB
:103640004319089590916D0281E0943009F080E073
:10365000609169020E944919089542E061EC81E09D
:103660000E94481E42E261EC84E00E94481E42E251
:1036700061EC82E00E94481E42E260EC83E00E941E
:10368000481E90916D0281E0943009F080E06091D5
:1036900069020E943919089580916F02833009F4FC
:1036A00063C030F48130E1F1823009F4A0C00895A4
:1036B0008A3009F48CC08B3009F471C0893009F06C
:1036C00052C080916E02813209F04DC08091720229
:1036D00090917302009719F0029709F044C080910D
:1036E000E800877F8093E8008091E80082FF37C080
:1036F0009091F3008091F200029731F48091F100F3
:10370000813011F0863021F48091F10080935D02C8
:103710008091E8008B778093E8000E947C1E23C094
:1037200080916E02813AF9F48091E800877F80935E
:10373000E8008091720290917302892B61F460E23B
:103740008DE392E070E00E948B1D8091E8008B7702
:103750008093E800089560E090E080E0F3CF8091EE
:103760006D028111C1CF089580916E02813AD9F71F
:103770008091720290917302892BA9F78091E800E1
:10378000877F8093E8008091E80080FFFCCF8091E4
:1037900016018093F1008091E8008E77BCCF809174
:1037A0006E02813201F78091720290917302892B2F
:1037B000D1F68091E800877F8093E8000E947C1E0C
:1037C00080917002809316010E94DC06089580911A
:1037D0006E02813241F68091E800877F8093E80095
:1037E0000E947C1E8091710280935E0208958091F8
:1037F0006E02813A09F0B7CF8091E800877F80930D
:10380000E8008091E80080FFFCCF80915E02C1CF8C
:1038100084B7877F84BF0FB6F894A8958091600025
:10382000886180936000109260000FBE80E890E095
:103830000FB6F89480936100909361000FBE0E94D0
:10384000521908950E94CC1E0E94291FE2EEF0E05A
:1038500080818460808378940E94A82108958AE002
:1038600091E00E940318089580916D02853031F433
:1038700080916D02853019F00E94CD1908950E9443
:10388000A21980916B02882399F30E945F19882303
:1038900079F30E94D71C0E94DC06EACFA0E2B0E0D8
:1038A000E4E5FCE10C94F42180916D02843009F58B
:1038B00083E08093E9008091E80082FF1AC0809144
:1038C000E80090E085FF09C050E040E060E270E071
:1038D000CE0101960E943C1D91E08091E8008B771B
:1038E0008093E800992329F060E2CE0101960E94BE
:1038F000B513A096E2E00C9410220E94801C08955B
:10390000292F33272330310521F168F42130310587
:1039100009F443C02230310509F444C090E080E04E
:1039200030E020E026C02132310551F1223231054C
:10393000A9F76330710590F7FB01EE0FFF1FEE57FB
:10394000FE4F2081318161587E4FFB01808190E0E4
:1039500010C099278130910581F0009729F00297D6
:10396000E9F6E8E6F1E002C0E6ECF1E0849190E0EF
:103970009F01FA01318320830895E2E8F1E0F6CF58
:103980006330710558F6660F771FFB01E857FE4F4D
:103990002081318189E090E0ECCF82E190E025E266
:1039A00032E0E7CF8BE590E02AEC31E0E2CF80E136
:1039B00089BD82E189BD09B400FEFDCF8091D800A8
:1039C0008F7D8093D8008091E00082608093E0003A
:1039D0008091E00081FDFCCF0895AF92BF92CF921D
:1039E000DF92FF920F931F93CF93DF936C01EB0154
:1039F0008A010E949B1EF82E811123C0011511051A
:103A000039F0F80180819181C81BD90BC80ED91EED
:103A1000B12CA12C2097A9F08091E80085FD22C04F
:103A20008091E8008E778093E80001151105A1F0E0
:103A3000F80180819181A80EB91EB182A08285E033
:103A4000F82E8F2DDF91CF911F910F91FF90DF9076
:103A5000CF90BF90AF9008950E949B1E8823D1F213
:103A6000F82EEFCFF60181916F018093F10021973D
:103A7000FFEFAF1ABF0ACECFAF92BF92CF92DF92C5
:103A8000FF920F931F93CF93DF936C01EB018A0199
:103A90000E949B1EF82E811123C00115110539F0DB
:103AA000F80180819181C81BD90BC80ED91EB12C99
:103AB000A12C2097A9F08091E80085FD22C080917B
:103AC000E8008B778093E80001151105A1F0F8015B
:103AD00080819181A80EB91EB182A08285E0F82E66
:103AE0008F2DDF91CF911F910F91FF90DF90CF909D
:103AF000BF90AF9008950E949B1E8823D1F2F82EAC
:103B0000EFCF8091F100F60181936F012197FFEFD4
:103B1000AF1ABF0ACECFFC0180917402909175025A
:103B200086179707A0F06115710529F49091E800B8
:103B30009E779093E80090E06115710551F4911122
:103B400008C08091E80082FF34C080E00895BC0185
:103B5000F2CF80916D028823C1F18530C1F180914F
:103B6000E80083FD30C08091E80082FDEACF8091BB
:103B7000E80080FFE1CF8091F3002091F200382F20
:103B80006115710519F02830310558F091E02830A1
:103B9000310509F090E02091E8002E772093E800AD
:103BA000CBCF81918093F100615071092F5F3F4F1E
:103BB000E7CF80916D02882341F0853041F08091FC
:103BC000E80083FFBECF81E0089582E0089583E09E
:103BD0000895FC01809174029091750286179707F1
:103BE000A0F06115710529F48091E8008E7780932B
:103BF000E80090E06115710551F4911108C08091C1
:103C0000E80082FF35C080E00895BC01F2CF8091CA
:103C10006D028823C9F18530C9F18091E80083FDE8
:103C200031C08091E80082FDEACF8091E80080FFFA
:103C3000E1CF8091F3002091F200382F61157105DA
:103C400019F02830310558F091E02830310509F09D
:103C500090E08091E8008E778093E800CBCF84914C
:103C60008093F1003196615071092F5F3F4FE6CF8D
:103C700080916D02882341F0853041F08091E80009
:103C800083FFBDCF81E0089582E0089583E0089529
:103C9000982F973028F08F708093E90081E0089585
:103CA0009093E900242F762F50E0981731F070910F
:103CB000EC002091ED005091F00021FD02C09F5FCB
:103CC000E8CF3091EB003E7F3093EB003091ED0078
:103CD0003D7F3093ED003091EB0031603093EB008D
:103CE0007093EC002093ED005093F0002091EE00D3
:103CF00027FDE5CF80E0089580916E0287FF13C015
:103D00008091E80082FF06C08091E8008B77809365
:103D1000E80004C080916D028111F2CF0895809176
:103D20006D028823D9F38091E80080FFF8CF80915D
:103D3000E8008E77ECCF2091E4003091E50095E625
:103D4000A9012091EC00822F817020FF06C0809194
:103D5000E80080FF06C080E008952091E80022FD81
:103D60001AC080916D02882389F0853089F0809196
:103D7000EB0085FD0FC02091E4003091E500421773
:103D80005307F9F29150E1F684E0089582E0089536
:103D900083E0089581E008950E943B1F0E94431F25
:103DA000E0EEF0E0808181608083E8EDF0E08081EA
:103DB0008F77808319BCA7EDB0E08C918E7F8C93B8
:103DC00080818F7E808310926C0208950F931F93E1
:103DD000CF93DF930E943B1F0E94431FC8EDD0E0AA
:103DE00088818F77888388818068888388818F7DA8
:103DF000888319BC10926D021092690210926B02B6
:103E000010926A0200EE10E0F80180818B7F8083BF
:103E100088818160888342E060E080E00E94481EE3
:103E2000E1EEF0E080818E7F8083E2EEF0E0808141
:103E300081608083808188608083F80180818E7FAB
:103E40008083888180618883DF91CF911F910F915A
:103E50000895E8EDF0E080818F7E8083E7EDF0E06B
:103E600080818160808384E082BF81E080936C02E6
:103E70000E94E61E0895E8EDF0E080818E7F808349
:103E80001092E20008951092DA001092E100089575
:103E90001F920F920FB60F9211242F933F934F93BF
:103EA0005F936F937F938F939F93AF93BF93EF93A2
:103EB000FF938091E10082FF0BC08091E20082FFBE
:103EC00007C08091E1008B7F8093E1000E94A721D1
:103ED0008091DA0080FF19C08091D80080FF15C062
:103EE0008091DA008E7F8093DA008091D90080FF84
:103EF00096C080E189BD82E189BD09B400FEFDCF95
:103F000081E080936D020E94051B8091E10080FF9B
:103F100019C08091E20080FF15C08091E2008E7F81
:103F20008093E2008091E20080618093E2008091C2
:103F3000D80080628093D80019BC85E080936D0220
:103F40000E94191B8091E10084FF2BC08091E20048
:103F500084FF27C080E189BD82E189BD89B5982FA2
:103F6000917080FFFBCF8091D8008F7D8093D80027
:103F70008091E1008F7E8093E1008091E2008F7E4E
:103F80008093E2008091E20081608093E200809162
:103F90006902882309F449C084E080936D020E947D
:103FA000221B8091E10083FF29C08091E20083FF02
:103FB00025C08091E100877F8093E10082E08093BB
:103FC0006D02109269028091E1008E7F8093E10082
:103FD0008091E2008E7F8093E2008091E200806118
:103FE0008093E20042E060E080E00E94481E809101
:103FF000F00088608093F0000E94161BFF91EF9103
:10400000BF91AF919F918F917F916F915F914F91F0
:104010003F912F910F900FBE0F901F90189519BCD4
:1040200010926D020E94131B70CF8091E30087FDF8
:1040300093E090936D02B3CF1F920F920FB60F9241
:1040400011242F933F934F935F936F937F938F939D
:104050009F93AF93BF93CF93DF93EF93FF93D09151
:10406000E900DF708091EC00C82FC17080FDC0E8CE
:104070001092E9008091F000877F8093F00078949F
:104080000E9460201092E9008091F0008860809387
:10409000F000CD2BCF70C093E900FF91EF91DF913D
:1040A000CF91BF91AF919F918F917F916F915F91D0
:1040B0004F913F912F910F900FBE0F901F90189529
:1040C000AAE2B0E0E6E6F0E20C94F3218EE692E09C
:1040D0002091F100FC012193CF01F2E086379F0788
:1040E000B9F70E944C1B8091E80083FF1EC18091AC
:1040F0006E0290916F029A3008F017C1E92FF0E03C
:10410000E156FD4D0C94D721803899F0823809F0A2
:104110000CC1809172028F70873008F006C18093C5
:10412000E9008091EB0085FB882780F91092E90077
:1041300006C080916A0290916B0291118260909109
:10414000E800977F9093E8008093F1001092F100CF
:104150008091E8008E77E5C0882309F4D3C08230CF
:1041600009F0E3C0809170028111D6C08091720283
:104170008F702FEF280F263008F0D7C08093E9000A
:104180002091EB0020FFC8C0933031F48091EB0008
:1041900080628093EB00C0C09091EB00906190939F
:1041A000EB0021E030E001C0220F8A95EAF720936E
:1041B000EA001092EA008091EB008860EACF81115A
:1041C000B4C0109170021F778091E3008078812B3A
:1041D0008093E3008091E800877F8093E8000E944D
:1041E0007C1E8091E80080FFFCCF8091E300806816
:1041F0008093E30082E0111183E080936D0295C00B
:104200008058823008F091C08091700290917102C4
:104210008C3D23E09207A1F583E08A838AE28983BB
:104220004FB7F894DE01139620E03EE051E2E32F11
:10423000F0E050935700E49120FF03C0E295EF7047
:104240003F5FEF708E2F90E0EA30C0F0C7968D93FD
:104250009D932F5F243159F74FBF8091E800877FEE
:104260008093E8006AE270E0CE0101960E948B1D07
:104270008091E8008B778093E80057C0C096E7CF25
:104280006091720270917302AE014F5F5F4F0E94A6
:104290007D1CBC01892B09F448C09091E800977FF0
:1042A0009093E80089819A810E94E91DE1CF8038CE
:1042B000E1F58091E800877F8093E80080916902B2
:1042C0008093F10045CF811130C0909170029230FF
:1042D00060F58091E800877F8093E8009093690201
:1042E0000E947C1E80916902882311F084E005C041
:1042F0008091E30087FDFACF81E080936D020E94F8
:104300002D1B13C080917002813079F481E09330CD
:1043100009F080E080936B021092E9008091E80040
:10432000877F8093E8000E947C1E8091E80083FFD5
:104330000AC08091E800877F8093E8008091EB00BD
:1043400080628093EB00AA96E3E00C940F2208951C
:10435000CF9380916D028823A1F0C091E900CF70C6
:104360009091EC00892F817090FD80E8C82B10920D
:10437000E9008091E80083FD0E946020CF70C09327
:10438000E900CF91089597FB072E16F4009407D00B
:1043900077FD09D00E941B2207FC05D03EF49095C2
:1043A00081959F4F0895709561957F4F0895EE0F09
:1043B000FF1F0590F491E02D09946927962769273E
:1043C00078278727782708952F923F924F925F9200
:1043D0006F927F928F929F92AF92BF92CF92DF9215
:1043E000EF92FF920F931F93CF93DF93CDB7DEB77A
:1043F000CA1BDB0B0FB6F894DEBF0FBECDBF09940E
:104400002A88398848885F846E847D848C849B8464
:10441000AA84B984C884DF80EE80FD800C811B8172
:10442000AA81B981CE0FD11D0FB6F894DEBF0FBEA1
:10443000CDBFED010895AA1BBB1B51E107C0AA1F08
:10444000BB1FA617B70710F0A61BB70B881F991F35
:104450005A95A9F780959095BC01CD010895FB016F
:10446000DC0104C08D910190801921F4415050402D
:10447000C8F7881B990B0895F999FECF92BD81BDAD
:10448000F89A992780B50895A8E1B0E042E050E09D
:104490000C947022262FF999FECF92BD81BDF89A17
:1044A000019700B4021639F01FBA20BD0FB6F89478
:1044B000FA9AF99A0FBE08950396272F0E944B226D
:1044C0000E944A22252F0E944B22242F0C944B221B
:1044D0000196272F0E944B220C944A22DC01CB012B
:1044E000FC01F999FECF06C0F2BDE1BDF89A319604
:1044F00000B40D9241505040B8F70895F894FFCFA2
:10450000D104D104020502058F05AB053105310543
:10451000B6051D062C062C06C413CF13F013FC138E
:104520000714121415141514151415141514181451
:104530001C14241431143E144114441451148420C6
:10454000AC209521AC209521DF2000219521572119
:024550006321E5
:10455200F101280850011E0A1401421A671A461A6C
:10456200D61AD11A451A01E200E900EA00B500B6EE
:1045720000B700CD008301CC008A01920194012191
:1045820002230224022502260227022A02B300B4D1
:10459200006F007000818283E200E900EA00B5004A
:1045A200B600B700CD008301CC008A0192019401CC
:1045B2002102230224022502260227022A02B30034
:1045C200B4006F007000818283F5F6F73133324018
:0E45D20022B60F0337025902DC01F501150273
:00000001FF
