:100000000C9412020C942F020C942F020C942F02C9
:100010000C942F020C942F020C942F020C942F029C
:100020000C942F020C942F020C944C260C94202735
:100030000C94CE1C0C942F020C942F020C942F02C3
:100040000C942F020C942F020C942F020C942F026C
:100050000C942F020C94551D0C942F020C942F021B
:100060000C942F020C942F020C942F020C942F024C
:100070000C942F020C942F020C942F020C942F023C
:100080000C942F020C942F020C942F020C942F022C
:100090000C942F020C942F020C942F020C942F021C
:1000A0000C942F020C942F020C942F020101913119
:1000B000443130300A000101913344360A00010115
:1000C000913244360A00010191314432300A000174
:1000D0000191314431320A00010191314431300A39
:1000E000000101913144380A000101913144360A7E
:1000F000000101913144340A001003F900815F07C7
:1001000003FA00865F010001000100010001000107
:1001100000010001000100010001000100010001D7
:1001200000010001000100010000000000000000CB
:10013000002A2B2800000000000000000000000042
:100140000000000029000000002C1E342021222481
:10015000342627252E362D3738271E1F202122230F
:100160002425263333362E37381F040506070809A1
:100170000A0B0C0D0E0F1011121314151617181967
:100180001A1B1C1D2F3130232D35040506070809C5
:100190000A0B0C0D0E0F1011121314151617181947
:1001A0001A1B1C1D2F3130354C00000000000000D0
:1001B000000000000000000000000000000000003F
:1001C000000000000000000000000000007E0F00A2
:1001D000D4FFFFFFC700000078180343004300204E
:1001E00000500072006100630074006900630065E4
:1001F00000000042034300680069006E0061007463
:10020000007300750020004300680069006200610F
:10021000002000280061007A0075006C0065006510
:10022000002F006D006F006B006500730075007299
:1002300000610029000000040309040902BF000551
:100240000100A0FA090400000103010100092111C5
:100250000100012240000705810308000109040193
:100260000002030000000921110100012222000701
:100270000582032000010705030320000109040291
:1002800000010300000009211101000122B600074E
:10029000058403200001080B03020101000009048A
:1002A000030000010100000924010001090001040C
:1002B00009040400020103000007240100014100B9
:1002C000062402010100062402020200092403019F
:1002D00003010201000924030204010101000905D0
:1002E00006024000050000052501010109058502FF
:1002F0004000050000052501010312010002000075
:100300000008091201CC0001010200010660FF098A
:1003100061A1010962150026FF0095207508810280
:100320000963150026FF00952075089102C005019C
:100330000902A10185020901A10005091901290885
:100340001500250195087501810205010930093163
:100350001581257F95027508810609381581257F4D
:10036000950175088106050C0A38021581257F95CF
:100370000175088106C0C005010980A10185031926
:10038000012AB700150126B700950175108100C03C
:10039000050C0901A101850419012AA002150126F5
:1003A000A002950175108100C005010906A1018513
:1003B00006050719E029E715002501950875018153
:1003C000020507190029EF1500250195F075018137
:1003D0000205081901290595057501910295017518
:1003E000039101C005010906A101050719E029E7EC
:1003F0001500250195087501810295017508810197
:100400000507190029FF150026FF009506750881CC
:1004100000050819012905950575019102950175D9
:10042000039101C011241FBECFEFDAE0DEBFCDBFC4
:1004300011E0A0E0B1E0EEE7F3E502C005900D9217
:10044000AA3AB107D9F723E0AAEAB1E001C01D92A8
:10045000AC38B207E1F70E943B110C948B290C9445
:10046000000080589F458930910578F4FC01E357DE
:10047000F64DDB0112969C910C94EF28992329F0FC
:1004800060E081EF90E00E947E1881E0089599235A
:10049000E1F360E089EE90E0F6CF9923B1F360E0FC
:1004A00081EE90E0F0CF992381F360E088ED90E059
:1004B000EACF992351F360E08FEC90E0E4CF9923E9
:1004C00021F360E086EC90E0DECF9923F1F260E06A
:1004D0008EEB90E0D8CF9923C1F260E086EB90E0FC
:1004E000D2CF992391F260E08CEA90E0CCCF84E007
:1004F00008959C013A9521153F4150F5FC01EE27E6
:10050000F170BC0166277270AC01442754709C01E5
:100510002227387094FF0EC080E1EF2B09F480E0B1
:10052000672B09F08062452B09F08064232B89F04A
:100530008068089581E0EF2B09F480E0672B09F0D3
:100540008260452B09F08460232B19F088600895A0
:1005500080E00895CF93DF93EB010E947902FE01C2
:100560000995DF91CF910895CF93DF93EC01805EE1
:100570009109089720F06EE477E0209711F460E18C
:1005800075E0CE010E94AA028C2F0E947104DF91B7
:10059000CF910895CF93DF93EC010E94BD04CE016B
:1005A000805E9109089720F065E577E0209711F4C7
:1005B00067E175E0CE010E94AA02DF91CF91089514
:1005C0000F931F93CF93DF938C01EB010E94B40232
:1005D000209741F4C8010E94CA02DF91CF911F9178
:1005E0000F9108958FE99FE00197F1F700C0000097
:1005F0002197EECF70E060E08933910511F460E55A
:1006000070E00E94E002089581E008950E943102A6
:10061000089508950E9409030895A5E0B0E0E3E17C
:10062000F3E00C940B2949835A833091B1018981FD
:100630009A81311119C0662399F0222389F00E9412
:10064000A408182F682F89819A810E9480086981E7
:100650007A81812F0E94B6192596E3E00C94272910
:100660000E949208182FF3CF0E94A40869817A8112
:10067000F1CFFC01262F40815181628173818481F9
:100680000E940D03089581E00895CF93DF93EC015C
:1006900060E00E943903BE010E940A03DF91CF91FE
:1006A0000895E1E0F0E0DF0102C0AA0FBB1F6A95E8
:1006B000E2F7BD01DF0102C0AA0FBB1F4A95E2F7B6
:1006C0006A2B01C0EE0F2A95EAF7962F982396130E
:1006D00002C08E2B0895E0958E230895242F462F77
:1006E000682F8091B5010E9451030E94E007089590
:1006F0000E94431008950E944710089508950E9493
:1007000072070E947E032FEF84E39CE0215080401B
:100710009040E1F700C0000008950E947F030E940E
:10072000791D08950E947F030E948A1D08950F93EA
:100730001F93CF93DF938C0161E00E943903EC019A
:10074000B8010E943614811106C080E0DF91CF917C
:100750001F910F910895B801CE010E9406038823CE
:10076000A1F3B801CE010E940716882371F3B801E6
:10077000CE010E94FC1A882341F3B801CE010E94E9
:100780004216882311F3B801CE010E946E1A882305
:10079000E1F2F8018281882361F0CA35FDE5DF07C7
:1007A00001F158F4C115ECE5DE0791F0CE3DDC45D2
:1007B00091F0C8010E940403C9CFCC358DE5D8075C
:1007C00069F090F0C73ADD45A1F70E949203BDCFD2
:1007D0000E948D03BACF0E94600DF7CF0E949A0C41
:1007E000E8CF0E94A40CE5CF0E94A80CE2CF0E94A3
:1007F000AA1C0E94140408950E9418040E94AF1CB1
:10080000089508950E940104089581E008950E94CA
:10081000050408950895CF93C82F0E9402048C2FD9
:100820000E940704CF91089580E00E940B04089570
:100830000E94581B0E940B040895CF930E94581BDE
:10084000C82F8091AC018C1779F0C093AC010E9445
:100850003A1D6093AD017093AE018093AF01909308
:10086000B0018C2F0E940B04CF910895ABE0B0E053
:10087000ECE3F4E00C940C294F83588769877A875E
:100880008B8761110E94E50B1E821D8285E0FE01AF
:100890003796DE01119601900D928A95E1F78C81D1
:1008A0009D81892B61F449815A816B817C818D8185
:1008B0009E810E940B0B2B96E2E00C9428298981E3
:1008C0009A8189238F3F79F3CE0101960E944303D9
:1008D0008111E9CFF0CFFC01808191810E94D10884
:1008E0000895CF93C82F8823B9F08CEF8C0F813AED
:1008F000A8F46C2F80910001909101010E94D01BFF
:10090000882329F08C2F0E94A20B0E94060C8C2FAA
:100910000E949A0B0E94060CCF91089580E28C0FE2
:10092000883048F4C77081E001C0880FCA95EAF7A3
:100930000E94C50BEFCFEBE5EC0FE33040F4F0E0A5
:10094000EF5AFE4F808190E00E94901BE5CFE8E5D2
:10095000EC0FE73150F4F0E0EE0FFF1FED5DFE4FBE
:10096000808191810E94A61BD7CFC03FA8F28C2F17
:100970000E94C4110E949712CFCF882379F19CEF77
:10098000980F913A28F40E94A20B0E94060C089539
:1009900090E2980F983050F4877091E001C0990F61
:1009A0008A95EAF7892F0E94CB0BEFCF9BE5980F32
:1009B000933028F490E080E00E94901B089598E521
:1009C000980F973128F490E080E00E94A61B0895CC
:1009D000803F20F00E941E120E94971208951F93DC
:1009E000CF93DF93182FEB010E947104209739F405
:1009F000812F0E94BD04DF91CF911F9108958FE94F
:100A00009FE00197F1F700C000002197EFCF70E061
:100A100060E0893311F460E570E00E94EF0408950E
:100A2000882321F00E94C50B0E94060C089588239C
:100A300021F00E94CB0B0E94060C0895B0E0A0E0CC
:100A4000E4E2F5E00C9405296C01D62FC72FFC01D8
:100A50001281F580F2949FE0F9220E94BB0BE82EF0
:100A60008823B9F0E12E1123A1F08C2F807F8034F0
:100A700021F080E28D0F8830D0F08091820282FFD9
:100A800016C082E00E94690C0E94BB0B91E0E82E28
:100A9000E926BC2EB2948FE0B822FBE0FB1508F4E7
:100AA00068C0EB2DF0E0EA56F64D0C94EF28E12CEF
:100AB000F0CF0C2F0F70C07F11F00295007F112333
:100AC00099F0002359F080E28D0F883010F0D11199
:100AD00007C0802F0E94C50B0E94060C8D2F41C0BD
:100AE000802F0E94D80BF8CF8D2F0E94BD040023C9
:100AF00009F43FC080E28D0F883010F0D11104C09E
:100B0000802F0E94CB0B03C0802F0E94DE0B0E941F
:100B1000060C2FC00C2F0F70C07FC03211F0029551
:100B2000007FDD2381F0D13009F463C0112309F483
:100B30006DC0FF2009F463C0F601858180FFCECF30
:100B40008F7085835CC08091820282FD33C0112347
:100B500059F0002329F0802F0E94C50B0E94060C3B
:100B600080E00E94710405C080E00E94BD04011174
:100B7000C7CFEB2DE850FF0B349720F40E94581B91
:100B80000E940B04EE2089F00E94B70B80FD0DC07F
:100B9000F60112820E94B10B0E94F407C6010E9466
:100BA00024070E94B10B0E940008CDB7DEB7E9E030
:100BB0000C942129112389F0F11006C00E94E80B42
:100BC000802B0E941005D5CF21E0F212F7CF0E94B2
:100BD000E80B802B0E94EF0BCCCFF11006C00E94D7
:100BE000FC0B802F0E941705C4CF31E0F31609F2E9
:100BF000F6CF112331F085E08F1508F4BACF802F9E
:100C0000E0CF94E09F1508F4B4CFEBCFFF2049F379
:100C1000D93349F4FFEF27EE33E0F1502040304064
:100C2000E1F700C000008D2F0E94BD04A2CF8C2FE1
:100C300086958695837069F0813009F09ACF8D2F63
:100C40009C2F9370111102C090E080E00E94A61BBF
:100C500090CF8D2F9C2F9370111102C090E080E0F7
:100C60000E94901B86CF8D2F112329F00E94C41162
:100C70000E9497127ECF0E941E12FACF8C2F837093
:100C800079F5111176CF4D2F429546954770440F57
:100C9000440F8D2F8F70042E01C0880F0A94EAF73D
:100CA0002D2F2071D4FF07C02FE030E001C0220FAC
:100CB0004A95EAF72095C695C695C370822BC23037
:100CC00049F058F4C13019F00E94CE0752CF0E946B
:100CD000C8074FCF0E94D4074CCF0E94C50749CF09
:100CE0008695112311F08C2F8170882309F441CF50
:100CF0004D2F429546954770440F440F8D2F8F70AE
:100D0000042E01C0880F0A94EAF72D2F2071D4FF1A
:100D100007C02FE030E001C0220F4A95EAF7209586
:100D2000C695C695C370822BC23049F058F4C130C5
:100D300019F00E941F081DCF0E9419081ACF0E94A7
:100D4000250817CF0E94E00714CFCF70112329F098
:100D50008C2F0E94F4078D2F34CF8D2F0E94170502
:100D60008C2F0E94000805CFD23F51F160F4D03F94
:100D7000B9F0D13F81F0112309F449C0F110AECE92
:100D80008C2F8F7121C0D33F11F1D43FA1F78091F7
:100D9000820282FD26C08C2F8F71112311F314C0A3
:100DA000112349F084E08F1508F4E3CE8C2F8F7166
:100DB0000E940D08DECE95E09F1508F4DACEF6CF3E
:100DC0008C2F8F711111CDCF0E94F407D2CE112339
:100DD00029F08C2F8F710E94EB07CBCE0E94E70782
:100DE000C8CE112349F0CF718C2F0E94F40763E025
:100DF0008C2F0E944B0CBDCE81E00E94690CE1E07B
:100E0000EF1508F0B6CE82E00E94690CB2CEF11068
:100E1000FFCE8C2F8F71A5CF0F931F93CF93DF93AE
:100E2000EC01688179818A810E94DC088C010E9432
:100E30002B080E94C407B801CE010E941E05DF9155
:100E4000CF911F910F910895CF93DF93EC018B8188
:100E50009C81892B29F08881998189238F3F51F4C6
:100E6000DF91CF910895CE010E940C07CE010E9420
:100E70004503F6CFCE010E9497038111F4CF0E9463
:100E8000BB0B882369F38A81882351F38091820206
:100E900082FFE6CF82E00E94690CE2CF882321F036
:100EA0000E94D80B0E94060C0895882321F00E940E
:100EB000DE0B0E94060C089590E080E00E94901BDB
:100EC00090E080E00E94A61B0E94E50B0E94060CA9
:100ED0000E94B3120E94971208950E94AA0B0E94CA
:100EE0005C0708950E94D50B0E946D0708959295A6
:100EF0009F70963091F058F4925F9F70923058F442
:100F0000803F19F030F4883E30F481E008959A5F14
:100F1000F4CF843FD1F380E00895883EB0F3813F61
:100F2000D1F7F3CFFC0183819481892B29F0808153
:100F3000918189238F3F11F480E008958081918110
:100F40000E94D1080E9477070895A5E0B0E0EBEA7F
:100F5000F7E00C940C292596E2E00C942829A6E0F1
:100F6000B0E0E5EBF7E00C940C292696E2E00C9457
:100F7000282908950E94B90708950E94BA0780930E
:100F8000B6010E945C07089508950E94BD07089568
:100F90009091B601892B0E94BD0708959091B601EA
:100FA00089230E94BD0708959091B60189270E9468
:100FB000BD0708950E94B90708950E94DA070895B1
:100FC0000E94DD078093B5010E945C07089580E0D0
:100FD0000E94E007089591E001C0990F8A95EAF711
:100FE000892F0E94E007089521E030E001C0220F20
:100FF0008A95EAF78091B501822B0E94E007089557
:1010000021E030E001C0220F8A95EAF72095809117
:10101000B50182230E94E007089521E030E001C07D
:10102000220F8A95EAF78091B50182270E94E00796
:1010300008959091B501892B0E94E0070895909141
:10104000B50189230E94E00708959091B501892791
:101050000E94E00708950895262F277091E001C0AF
:10106000990F2A95EAF723E0769567952A95E1F797
:10107000FB01EE0FFF1FE60FF71FE40FF51F50E017
:1010800040E0682F70E08191DF0111979B01042EF1
:1010900002C0369527950A94E2F7217021952827FA
:1010A000292328272C934F5F5F4F4330510559F771
:1010B0000895A82FA77023E0969587952A95E1F7C4
:1010C000FC01EE0FFF1FE80FF91FE60FF71F50E0BE
:1010D00040E080E0219130E00A2E02C0369527954D
:1010E0000A94E2F721703327042E01C0220F0A94DC
:1010F000EAF7822B4F5F5F4F4330510559F7089550
:10110000262F923070F4833060F4682F70E083E013
:10111000989F600D711D112442EB51E0822F0E94B7
:101120002C080895292F923068F4833058F490E009
:1011300062EB71E033E0239F800D911D11240E942A
:101140005908089580E00895CF92DF92FF920F939F
:101150001F93CF93DF936C010091B5018091B6018D
:10116000082BC7E0D0E010E0FC2EC8010C2E02C016
:10117000959587950A94E2F780FD0CC02197A0F71A
:10118000F12C8F2DDF91CF911F910F91FF90DF9068
:10119000CF900895B6018C2F0E941E0F019771F316
:1011A000F0CFCF93DF93EC010E94A408BE010E9410
:1011B0001E0FDF91CF9108951F93CF93DF93EB0123
:1011C0009091B101992339F0CB010E94D108DF91B0
:1011D000CF911F910895882369F0CB010E94A40844
:1011E000182F682FCE010E948008BE01812F0E9417
:1011F0001E0FEDCFCB010E949208182FF6CF1F9340
:10120000CF93DF93C091B70116E08091B8018C13A2
:1012100004C0DF91CF911F910895D0E01C9FF00191
:101220001D9FF00D1124E754FE4F408151816281D2
:101230007381848195810E94AF072196C770E5CFA5
:101240004091E9015091EA016091EB017091EC014C
:101250008091ED019091EE010E94AF0708951F93D8
:10126000CF93DF938091EE01807F09F049C0809198
:10127000EB01882309F444C08091B701C091B80103
:101280006091E9017091EA01A091EC01B091ED014A
:10129000D62FD72316E0C81799F190E0109711F0D8
:1012A000DF3F19F401968770F6CF189F9001199FC0
:1012B000300D1124F901E754FE4F41814713F2CF5D
:1012C00040814613EFCF42814111ECCF43815481DD
:1012D0004A1B5B0B483C510528F78091EE018F704B
:1012E00080618093EE01F901E254FE4F80818F709E
:1012F0008061808389EE91E00E9424070E94FF08AC
:10130000DF91CF911F910895A1E1B0E0EAE8F9E003
:101310000C9404298C0185E0F801DE011D960190F2
:101320000D928A95E1F7F801E28089EEC82E81E0FE
:10133000D82E6091EC017091ED016115710509F4F1
:101340004EC19091E9012091EA01892F82238F3FBC
:1013500009F445C140815181A380B480F090EB0134
:10136000F501E61BF70BFF2009F4EAC08091EE01BE
:10137000382F307FE83CF10508F0A3C031116DC073
:10138000FE2C251316C0941314C0E11012C08F70E8
:1013900080618093EE010E942009C6010E9424070B
:1013A0008091EE01F80185838F2D6196EAE00C941F
:1013B0002029A114B10429F0842F85238F3F09F03F
:1013C00027C180E0F82FF170DF2E80FF3CC08091B4
:1013D000B7012091B80136E0821315C04D875E87B2
:1013E0008D859E850E94D108292F22952F7022304D
:1013F000F0F0243018F59F70F1F0F8019581907F9E
:10140000D1F4D12C1EC090E0389FF001399FF00D2F
:101410001124E754FE4F6181651306C06081641397
:1014200003C06281E6120FC001968770D5CF9F700E
:1014300011F0882331F3805E883018F3C8010E94D0
:101440002407FD2CB1CFEE2009F4AECF8091EE0140
:1014500081608093EE01F12CA7CF251306C0941371
:1014600004C0F801EE2009F487C0C8010E94920769
:10147000882319F1EE2009F18091EE01803270F09D
:101480002091E9013091EA0138872F831986BB86C4
:10149000AA868C87CE0107960E94240786E0F80171
:1014A000A9EEB1E001900D928A95E1F70E942F0913
:1014B0000E942009FF24F39477CFC8010E942407DB
:1014C000F9CF311113C07A2DB98AA88A6E2D898976
:1014D0000E94A50789EE91E00E94240786E0F601AC
:1014E00011928A95E9F70E942009B5CF25130FC004
:1014F00094130DC0E1100BC0F8018583C8010E9450
:10150000240786E0F60111928A95E9F74DCFC801CC
:101510000E949207882389F2EE2079F28091EE01F1
:10152000803208F4BBCF2091E9013091EA013A837F
:1015300029831B82BD82AC828E83CE010196ACCF03
:10154000E83CF10508F03EC0FE2CEE2009F4B5CFD2
:1015500025132AC0941328C08091EE0180FD1BC082
:10156000982F907FC1F0F8018583903F31F0982F3C
:10157000907F905F8F70892B8583C8010E9424071C
:1015800086E0F801A9EEB1E001900D928A95E1F7AD
:101590000E94200909CF86E0F801A9EEB1E0019090
:1015A0000D928A95E1F700CFC8010E949207811140
:1015B00075CF8091EE0181608093EE01C8010E9499
:1015C0002407F2CE7A2DB98AA88A6E2D89890E94C5
:1015D000A50786E0F60111928A95E9F7D9CFEE20AA
:1015E00009F46BCFC8010E949207F82E882309F4F2
:1015F00064CF86E0F801A9EEB1E001900D928A95E2
:10160000E1F789EE91E00E946B040E942F09C0CFA0
:1016100081E08E25D7CEACE0B0E0E1E1FBE00C94B8
:101620000B294F83588769877A878B879C87CE01E0
:1016300007960E948409882369F08A859B85892BF7
:1016400039F04F815885842F85238F3F09F06BC077
:1016500016E05FC086E0FE013796DE01119601902C
:101660000D928A95E1F78A859B85892B89F38F8175
:10167000988589238F3F61F32091B80130E0C9013B
:101680000196877099274091B7014817190671F4A0
:101690000E9472071092B8011092B70186E0E9EE3D
:1016A000F1E0DF011D928A95E9F7D2CF96E0929F93
:1016B000D001939FB00D1124A754BE4FFE01319667
:1016C00001900D929A95E1F78093B8010E94FF086E
:1016D000BFCF819FC001112487549E4F0E9484096F
:1016E0008823E9F0E091B7011E9FF0011124E7542F
:1016F000FE4F4081518162817381848195810E9476
:10170000AF078091B70190E0019687709927809389
:10171000B7018091B7019091B8018913DACF2C9667
:10172000E3E00C94272969857A858B859C850E9446
:10173000AF078ECF682F80910001909101010E9428
:10174000501C0895682F80910001909101010E9422
:101750005E1C089580910001909101010E946C1C13
:10176000089580910F0285958595859508958091BE
:101770000F028770089590910F02977081E009F42D
:1017800080E0089580913202089590913202892B71
:10179000809332020895809590913202982390931D
:1017A0003202089580933202089510923202089511
:1017B00090913102892B8093310208958095909108
:1017C00031029823909331020895109231020895C6
:1017D00080911002089508950E94EB0B0895909156
:1017E000820292FF08C090911002981721F0809316
:1017F00010020E94EC0B089580911002882329F0BA
:101800001092100280E00E94EC0B0895CF93DF93BA
:10181000E0910001F0910101809132028083E0911A
:101820000001F0910101808190913102892B808328
:1018300090911002992381F0E0910001F091010153
:101840008081892B808380910001909101010E9409
:10185000BC1B81110E94FC0BC0910001D0910101C1
:1018600040E250E06FEE71E0CE010E943329892BF7
:1018700059F080E2FE01AFEEB1E001900D928A9541
:10188000E1F7CE010E94681BDF91CF910895089582
:101890000E94470C08959091820292FF11C098E037
:1018A000899F90011124622B60930F020E94F4071C
:1018B00080910F028595859585950E94480C089525
:1018C0000E94F407089510920F0280E00E94480CD5
:1018D000089590910F028095892380930F02282FFD
:1018E000277091F4282F082E000C330B9217130643
:1018F00059F09091820292FF07C085958595859554
:101900000E9400080E94630C08959091820292FB4D
:10191000222720F9281769F080FB92F99093820220
:1019200080918102909182020E94D70C82E00E94F5
:10193000690C08958091820282FB882780F991E0EA
:1019400089270E94850C089581E00E94850C0895E6
:1019500080E00E94850C08956FEF7FEF90E080E0BB
:101960000E947529089590E080E00E945129883EE8
:101970009E4F19F40E94D113089580E0089582E0EB
:1019800090E00E944929089583E090E00E9449294F
:101990000895CF9384E090E00E944929C82F82E205
:1019A00090E00E944929982F8C2FCF910895CF93D2
:1019B000C92F682F84E090E00E9457296C2F82E2A3
:1019C00090E00E945729CF910895AB01BC018FE0B0
:1019D00090E00E9469290895AB01BC0183E190E089
:1019E0000E946929089560E070E0CB010E94EC0C30
:1019F000089560E070E0CB010E94E50C0E94F30CBA
:101A0000089568EE7EEF90E080E00E94752960E026
:101A100082E090E00E94572960E083E090E00E941D
:101A200057291092B60160E084E090E00E945729A7
:101A300064E082E290E00E94572960E085E090E057
:101A40000E94572960E086E090E00E9457296FEFDE
:101A500087E090E00E94572940E050E0BA0188E01A
:101A600090E00E94692960E08DE090E00E94572993
:101A700040E050E0BA0188E190E00E94692960E00E
:101A800087E190E00E94572940E050E0BA018CE1E4
:101A900090E00E94692970E060E080E290E00E949E
:101AA000752940E050E0BA0188E190E00E94692980
:101AB00080E00E94EA130E9419140E94F90C089514
:101AC0000E94010D0895682F8EE090E00E94572932
:101AD00008950E943A1D60933B0270933C028093EC
:101AE0003D0290933E0260933702709338028093D8
:101AF000390290933A020895089508950E947D0D49
:101B0000089508950E94810D089588E090E10E9453
:101B10004E1B0E947C0D0E947E0D089581E0089569
:101B20000E948E0D0895089508950E94930D0E94BD
:101B3000940D08950E9427100E940A040E944515E2
:101B400008950E94251D0E9429140E94A9100E9438
:101B50009A0D0E94820D0895AAE0B0E0E2EBFDE04C
:101B60000C9404290E94B9101091350280E00E9463
:101B70004A1018132FC01091360281E00E944A10BB
:101B8000181328C00E942E1D8C0180913302909161
:101B9000340208171907A1F08FEF89838A831B820B
:101BA0000E942E1D8160782F9D838C8349815A81EC
:101BB0006B818D810E9436041093340200933302AE
:101BC0000E94D5120E9448110E941D042A96EAE044
:101BD0000C94202980913F0281FD0E9450100E94A8
:101BE000900DC82E85E3A82E82E0B82E10E0812F3C
:101BF0000E944A10082FF50181915F01081731F109
:101C0000D02ED826F12CEE24E3948D2D8E21B1F028
:101C1000CC20A1F0FE821F8391E0802F8E2109F459
:101C200090E098870E942E1D8160782F9A8789877F
:101C30004E815F8168858A850E943604F394EE0C9C
:101C4000F3E0FF12E2CFF50131970083113019F470
:101C50000E94690DB5CF11E0CACFCF93DF930E94E8
:101C6000230FEC01811521E5920708F042C0811590
:101C700030E5930708F09FC0883E910530F5803E1F
:101C8000910508F094C0883A910588F4853A910549
:101C900008F086C08130910509F489C0009709F4E5
:101CA00086C0049708F083C0D0E0C0E080C08F3BBE
:101CB0009105D0F7C85AD0E0CC0FDD1FCC5ADE4FCB
:101CC0000990D881C02DD46472C0811540E2940778
:101CD00050F4C11581E0D80708F069C0C03FD105B4
:101CE00018F3D06564C081159044F0F2DF70D06ABB
:101CF0005EC0811535E5930718F5811544E5940715
:101D000008F085C0C11583E5D80708F06CC0C1157F
:101D100022E5D20708F462C0CE018370992721E042
:101D200030E002C0220F331F8A95E2F7C695C695B0
:101D300080E2C89FE0011124C22BD32BDC6837C09E
:101D4000811539E59307A8F4811548E5940708F053
:101D500063C0C11586E5D80708F0A6CF8C2F0E9476
:101D6000C50FC82FD0E0DC2FCC27CC27DF71D06285
:101D70001EC081152AE5920708F453C090568115BC
:101D8000904208F091CF8D2F8F710E94C50F90E087
:101D9000982F882788279F719C012C2BE901E7CF7A
:101DA000C55AD0E0CE57DE4FC881D0E0D064CE0116
:101DB000DF91CF9108958370992721E030E002C030
:101DC000220F331F8A95E2F7C695C69540E2C49F5D
:101DD000E0011124C22BD32BDD68E9CFDC2FCC2707
:101DE000C16FD06AE4CFCE018370992721E030E043
:101DF00002C0220F331F8A95E2F7C695C69540E2CE
:101E0000C49FE0011124C22BD32BDA68D0CFD82F86
:101E1000CC27C46FD06ACBCFD82FCC27C06FD06A65
:101E2000C6CF8F700E94C50F34E0D695C7953A95FE
:101E3000E1F7CF709C2FEC01D069B9CF0E94B619A1
:101E40000E942D0E089582389105B9F1B0F48133C6
:101E5000910509F47DC048F48932910509F46DC0FB
:101E60008A32910509F47BC008958533910509F400
:101E70005FC08933910509F10895833E9105D9F139
:101E800038F4803E910529F1823E910579F108955B
:101E9000863E9105D9F1873E910509F43EC0843E06
:101EA000910541F52091820221FF24C08091810299
:101EB00084FD19C087EE90E008952091810223707F
:101EC00009F05AC02091820223FF14C089E290E0F9
:101ED00008952091810220FD38C03091820230FFA8
:101EE00009C024FF43C090E080E008952091810262
:101EF00022FDF7CF08952091810222FD3AC0309152
:101F0000820230FD39C024FFF5CFEDCF2091810250
:101F100023FFF0CF24FDE7CFCDCF2091810223FD19
:101F20002EC03091820231FFEECF84EE90E0089512
:101F30002091810225FFDECFC9CF2091810225FDAE
:101F400021C02091820223FFD5CF89E390E0D2CF38
:101F50002091810226FFCECF8AE290E00895209161
:101F6000810226FFC7CF81E390E0089583EE90E0E1
:101F7000089582EE90E0089580EE90E0089586EE58
:101F800090E0089585E390E008959091810292FF9A
:101F900006C0282F28712830F9F4877F846093FFCA
:101FA00006C0282F28712831F1F4877E84612091A2
:101FB000820220FF06C0382F38713830D9F4877F6D
:101FC000816021FF06C0282F28712831D1F4877E37
:101FD000816194FD877E0895282F24712430F9F6BD
:101FE0008B7F8860DCCF282F2471243101F78B7E12
:101FF0008861DDCF382F3171313019F78E7F8860DD
:10200000E0CF282F2171213121F78E7E8861E1CF29
:1020100080E008950E94AC0C08950E94B9102FEF43
:1020200086E791E0215080409040E1F700C0000039
:102030000E94B91080E00E944A1080FF04C00E94F4
:102040000A100E94791D08950E940D1008950E94A3
:10205000B30C811102C00E94600D0E94BF0C8093DE
:102060003F020E94C90C90938202809381020E94D9
:1020700024100E94C40C0E94C5078091B5010E94E3
:10208000DD07089508950E944210089508950E9462
:1020900046100895E82FF0E0EB57FD4F808108953A
:1020A00008951F93CF93DF9325E831E0C1E0D0E09E
:1020B000D90150E040E08D918F3F91F0E82FE295FB
:1020C000EF70F0E011A18F70BE0101C0660F8A951C
:1020D000EAF7962F9095912391A382A1862B82A354
:1020E0004F5F5F4F4330510531F72D5F3F4F81E028
:1020F0002B383807E9F6DF91CF911F910895CF93E0
:10210000DF93AC01A62FB0E083E0689FF0011124BB
:10211000EB57FE4F73E081E060E091919F3F81F0CB
:10212000C92FC295CF70D0E028A130E09F7002C0C7
:10213000359527959A95E2F7982F20FD90E0692B29
:10214000880F715051F7A40FB51F6C93DF91CF9199
:1021500008950E94511010928602109285021092EA
:1021600084021092830282E00E94EF100E947803A2
:102170000895A2E0B0E0EFEBF0E10C940B291A8295
:10218000198260E0CE0101960E947F1061E0CE01CD
:1021900001960E947F1042E050E0BE016F5F7F4FCA
:1021A00083E892E00E94332921E0009709F420E0BF
:1021B000892B31F089819A819093840280938302E4
:1021C00042E065E872E083E892E00E94F010182F88
:1021D0000E947B03812F2296E3E00C942729089527
:1021E000CF92DF92EF92FF920F931F93CF936C01E8
:1021F0007B01042F222349F081E0809342020E9458
:102200002E1D9093410280934002C0914202C11161
:102210000AC0C0E08C2FCF911F910F91FF90EF90DB
:10222000DF90CF90089580914002909141020E94EA
:10223000461D059770F310E0A801B601C7010E9482
:102240003329892B41F0A801B601C7010E9440291A
:1022500010924202DFCFC0E0FBCF0E9422230E94F7
:10226000A10D0E942F2308950E9434230E94AC0DDB
:102270000E944E2308950E94C71C0E9406230E94BC
:10228000850D0E942D110E9434110E94950DFBCFE7
:1022900082E992E00E948C1F08958091490280FF9C
:1022A0000DC06091070170E0660F771F60387105FF
:1022B00070F56115710569F1862F089581FF07C0DA
:1022C0006091070184E0689FB0011124EFCF609115
:1022D000070182FD0AC0809148028823A9F020915D
:1022E000060160910701821710F088E0ECCF869F0D
:1022F000C001112433E0880F991F3A95E1F7622F4E
:1023000070E00E94DB28D2CF68E070E0D5CF8FE785
:10231000089581E008958091490280FF0CC060918A
:10232000030170E075956795759567956115710561
:1023300049F1862F089581FF06C06091030170E086
:1023400075956795F3CF6091030182FD0BC0909165
:1023500047029923A1F06091020180910301961731
:1023600038F0682F70E06038710500F38FE708954A
:10237000899FC001112470E00E94DB28F4CF61E046
:1023800070E0D7CF81E00895803F31F40E944D1175
:10239000819580934D020895813F19F40E944D115B
:1023A000F8CF823F31F40E944D11819580934C0209
:1023B0000895833F19F40E944D11F8CF893F29F405
:1023C0000E948B1180934E0208958A3F21F40E944F
:1023D0008B118195F7CF8B3F31F40E948B11819542
:1023E00080934F0208958C3F19F40E948B11F8CF0F
:1023F0009CE0980F953070F4845F990B21E030E0F9
:1024000001C0220F8A95EAF780914B02822B8093BC
:102410004B0208958D3F31F4809149028160809391
:10242000490208958E3F21F4809149028260F7CFDE
:102430008F3FB9F7809149028460F1CF40914C02FF
:10244000803F59F480914D0287FF0DC010924D02DC
:1024500041110BC01092480208C0813F81F4809165
:102460004D0218169CF3442381F080914E02909106
:102470004F02892B09F05AC0109247020895823FFB
:1024800049F447FFF0CF10924C0280914D02811128
:10249000ECCFE0CF833F19F41416ACF3E4CF909166
:1024A0004E02893F29F41916F4F610924E02DBCF42
:1024B0008A3F19F497FFD7CFF8CF90914F028B3F07
:1024C00029F497FFD0CF10924F02CDCF8C3F19F453
:1024D0001916CCF3C8CF9CE0980F953090F4845F28
:1024E000990B21E030E0B90102C0660F771F8A9591
:1024F000E2F7CB01809590914B02892380934B02A8
:10250000B2CF8D3F31F4809149028E7F8093490292
:10251000AACF8E3F21F4809149028D7FF7CF8F3F64
:1025200009F0A1CF809149028B7FF0CF08950E94DE
:102530002E1D9C0190914C0280914D02982B21F010
:10254000309346022093450290914E0280914F02B3
:10255000982B21F030934402209343028AE492E0C6
:102560000E94821B089586E0EAE4F2E0DF011D92FA
:102570008A95E9F710924802109247021092490298
:102580000895FC01828181110EC0838181110BC0ED
:102590008481811108C091E08581811101C090E0A2
:1025A000892F8170089581E0FCCFA6E0B0E0EBEDCB
:1025B000F2E10C940B2986E0EAE4F2E0DE011196E8
:1025C00001900D928A95E1F710924C0210924D0203
:1025D00010924E0210924F028B819C81892B89F0C0
:1025E00080914502909146020E94461DAC01909157
:1025F00048029923C9F1809108018417150608F44F
:1026000040C08D819E81892B91F0809143029091F1
:1026100044020E94461DAC0190914702992309F49F
:1026200071C0809104018417150608F479C0BE01B9
:102630006F5F7F4F8AE492E00E947E1C811105C08B
:102640008AE492E00E94C11281110E94971286E0F2
:10265000FE013196AAE4B2E001900D928A95E1F76D
:102660002696E3E00C942729209109018AE0289F0F
:10267000900111242417350720F69F5F909348029C
:1026800002C09F3FD1F71B81112359F00E944D11C9
:102690009FEF11160CF491E0899F802D11248093F7
:1026A0004C021C81112359F00E944D119FEF11160D
:1026B0000CF491E0899F802D112480934D0230917C
:1026C0004C02332309F49DCF20914D02222309F4BB
:1026D00098CF45EB3403C0011124992359F090930E
:1026E0004C0245EB240390011124332339F030933D
:1026F0004D0287CF81E080934C02F3CF81E080933D
:102700004D027FCF209105018AE0289F900111247E
:102710002417350708F08BCF9F5F9093470202C0C4
:102720009F3FD1F71D81112359F00E948B119FEF1C
:1027300011160CF491E0899F802D112480934E0294
:102740001E81112359F00E948B119FEF11160CF47A
:1027500091E0899F802D112480934F0230914E0289
:10276000332309F464CF20914F02222309F45FCF71
:1027700045EB3403C0011124992359F090934E0284
:1027800045EB240390011124332339F030934F0299
:102790004ECF81E080934E02F3CF81E080934F02D1
:1027A00046CF83E290E00E944929823289F484E294
:1027B00090E00E944929823059F485E290E00E941D
:1027C000492991E0843209F090E0892F81700895C1
:1027D00080E0FCCFCF93C82F6FEF811162E283E2DC
:1027E00090E00E9457296FEFC11162E084E290E00F
:1027F0000E9457296FEFC11164E285E290E00E94C8
:102800005729CF910895089586E290E00E944929C2
:10281000682F70E090E080E008950895CF93C62F70
:102820000E940D146C2F86E290E00E945729CF91F0
:10283000089580E00E94EA1360E070E0CB010E94FE
:102840000E140E9436190E94131A81E00E94EA13A6
:1028500008950E9403140E9404140E940D140E9403
:10286000D113811102C00E9419140895CF93FB0166
:10287000C281CC2309F19C0122513F452031310511
:1028800020F582510E94231AC0E08C2FCF91089529
:1028900081E00E94F40743E062E081E00E946E0361
:1028A000F3CF81E00E94000843E062E081E00E94F3
:1028B0006E03EBCF82E0F6CF8031FFE59F0789F30F
:1028C00081319F45B9F3C1E0E0CF8031EFE59E074C
:1028D000F9F281319F45C9F682E0DBCF2FEFFC0191
:1028E000208308951F93CF93DF93EC01162FE88187
:1028F000E150E33108F056C0F0E0EE55F64D0C948F
:10290000EF2819828AE08A83612FCE010E94C321B9
:10291000DF91CF911F91089589818230B1F083308A
:1029200059F08130A9F40E943A1D0E94F5286A836B
:102930007B838C839D83E8CF80E00E944A108A834A
:1029400081E00E944A108B83DFCF0E940414EDCFF8
:10295000612FCE010E946E14D7CF89818230C1F7DA
:102960006A817B818C819D810E94F5280E940E14D2
:10297000CBCF4B816A8189810E94F81898278927DB
:1029800098279D838C83C0CF2C813D8132272327BC
:1029900032274B816A8189810E941A19B5CF0E9422
:1029A0003619B2CF8FEF8883AFCF0E94C4198983C5
:1029B000ABCF0E94C6199827892798279A838983C5
:1029C000A3CF6B8170E089819A81AE014C5F5F4F2C
:1029D0009827892798270E94C91996CF6B8170E0A4
:1029E00089819A81AE014C5F5F4F9827892798278C
:1029F0000E94EE1989CF0E94131A86CF0E94E61812
:102A0000D6CF6B8170E089819A81AE014C5F5F4FB8
:102A10009827892798270E94701976CF6B8170E0DC
:102A200089819A81AE014C5F5F4F9827892798274B
:102A30000E94931969CFCF93DF93EC0197FF0CC0ED
:102A4000FB018281882341F00E945C15CE019F77B3
:102A50000E94EC150E94BB1581E0DF91CF91089593
:102A600090918802923071F48A3050F490E0099687
:102A70006AE070E00E94DB28875A0E9407050895EB
:102A80008650FBCF0E94731808958CE090E00E945E
:102A9000492990E0B0E0A0E08093880290938902F9
:102AA000A0938A02B0938B020895609188028CE013
:102AB00090E00E94572908950E94651B86958170B9
:102AC00080938D020E94651B8170809387028091A4
:102AD0008802813039F480918D02882319F089E3CE
:102AE0000E9407050E94C20B80938C020E94D50BA6
:102AF0000E94E50B80918802823021F158F48823EE
:102B0000C1F08130D1F08FE39CE90197F1F700C06B
:102B100000000895843051F18530A9F78BE191E0F0
:102B20000E94FA0285E290E00E94FA0288E290E0B8
:102B300006C082EE0E947104E6CF88E193E00E9415
:102B4000FA02E1CF80918702811103C083E50E94E0
:102B5000070582EE0E9471048FE39CE90197F1F76B
:102B600000C0000087E50E940705CDCF86EE0E94D9
:102B7000070588E1F8CF80918802823011F148F48E
:102B8000882381F0813091F080918C020E94D20BD9
:102B900008958430F9F08530B9F788E290E00E941A
:102BA000FA02F2CF82EE0E94BD04EECF8CE20E94C8
:102BB000070580918D02882339F389E30E94070578
:102BC000E3CF82EE0E94BD04809187028111DCCFA9
:102BD00083E5F4CF88E2F2CF0F931F93CF93DF9377
:102BE0008C01CCE0D0E0C8010C2E02C096958795F0
:102BF0000A94E2F78F700E9430152497CC3F8FEF34
:102C0000D80789F7DF91CF911F910F9108950F9306
:102C10001F93CF93DF93EC018B01FB01828188230B
:102C200081F00E94C20BC33EFCE5DF0729F190F45E
:102C3000C13EECE5DE07D9F081E0C23EFCE5DF07EE
:102C400099F0B801CE010E941B15DF91CF911F9121
:102C50000F910895C53E8CE5D80791F078F085E096
:102C6000C03BFDE5DF0769F78093880202C0109240
:102C700088020E945515E5CF82E0F6CF83E0F4CFBD
:102C800084E0F2CFCF93DF93EC01FB0182818823B4
:102C900009F464C1C330FDE5DF07E0F5CA3F9CE5F8
:102CA000D90730F49E0122503C4524313105D8F536
:102CB0000E94C90C9093820280938102C231ECE59C
:102CC000DE0709F41FC108F06EC0C9308CE5D807D3
:102CD00009F4F2C008F03FC0C530ECE5DE0709F4A6
:102CE000DBC058F5C3308CE5D80709F4CDC008F037
:102CF000CFC0809181028160C230DC4509F4AEC052
:102D000080918102909182020E94D70C0E947207EA
:102D100080E009C0C53AEDE5DE0751F238F4C1366E
:102D20009DE5D90729F2DF91CF9108959E012D5A93
:102D30003D4523303105B8F7BBCF809181028062D9
:102D4000C730FCE5DF0709F489C008F4B1C0809101
:102D50008102806483C0CD309CE5D90709F4BAC0F4
:102D600070F4809181028E7FCB30FCE5DF0709F49F
:102D700075C008F4A7C0809181028D7F6FC0CF30ED
:102D80009CE5D90709F4B6C008F4A8C0C031FCE539
:102D9000DF0709F4B3C0C131DC4509F0B1CF809140
:102DA00081028F7B5BC0CF3F9CE5D90709F4B4C09B
:102DB00098F5CA3FFCE5DF0709F472C0B8F4C431E6
:102DC0009CE5D90709F4B6C008F4A2C0C531DC45BA
:102DD00009F096CF8091810282FB992790F921E03A
:102DE000922790FB82F990FB83F938C0CC3F8CE5A9
:102DF000D80709F477C008F457C0CD3FECE5DE07EB
:102E000009F474C0809182028360CE3FDC4509F0F2
:102E100077CF8093820274CFC1368DE5D80709F44D
:102E200096C068F4C130EDE5DE0709F48CC008F403
:102E300077C0C230DD4509F063CF80E085C0CD3A70
:102E40009DE5D907E9F068F490918102892F8E7F82
:102E500090FF8160C53ADD4509F052CF8093810231
:102E60004FCFCE3A8DE5D80789F1CF3ADD4509F04D
:102E700047CF90918202892F877F93FF8860C9CFC7
:102E8000809182028860C5CF809181028260E6CF06
:102E9000809181028460E2CF809181028860DECFE0
:102EA000809182028160B5CF809182028260B1CF31
:102EB000809181028061D2CF0E947207809181024D
:102EC0008068CCCF809181028C60C8CF80918202D3
:102ED000877F9FCF809181028B7FC0CF80918102BD
:102EE000877FBCCF809182028E7F93CF80918202B8
:102EF0008D7F8FCF809181028F7EB0CF80918102B4
:102F00008F7DACCF0E947207809181028F77A6CF10
:102F100080918102837FA2CF809182028C7F79CFC2
:102F200080918202982F909591708E7F892B90FBD3
:102F300081F96FCF0E94720790918102892F97FBD0
:102F400087F980588BCF81E00E94630DD9CE909194
:102F50008102892F8F7E94FF806180CF81E0E3CE54
:102F6000B0E0A0E0E6EBF7E10C940729E82FF0E0F1
:102F7000E75DFE4FD490282F26952695269530E0C4
:102F8000F901E753FE4F0491877010E0082E02C04C
:102F9000159507950A94E2F701701127F901E75496
:102FA000FE4FE490F12C082E02C0F594E7940A94A9
:102FB000E2F791E0E922FF24F901E755FE4FC491C1
:102FC000D0E002C0D595C7958A95E2F7C170DD279C
:102FD0000115110519F081EE0E947104E114F1044C
:102FE00019F086EE0E9471048D2D0E940705E114F0
:102FF000F10419F086EE0E94BD040115110519F0C7
:1030000081EE0E94BD04CD2B19F08CE20E940705D1
:10301000CDB7DEB7E7E00C942329EF92FF920F9330
:103020001F93CF93DF93EC01162F0AE0888188234A
:1030300009F454C0813009F04EC08981813099F47F
:103040007E0122E0E20EF11C8A810E940705E70161
:103050002196812F815050F3EFE9FFE03197F1F78E
:1030600000C00000F7CF823041F47E0182E0E80E1C
:10307000F11C8A810E947104EACF833041F47E0101
:10308000E2E0EE0EF11C8A810E94BD04E0CF8430A4
:1030900011F02196DDCF2A81229690E080E0AE01EA
:1030A0004F5F5F4F2053330B2A30310548F00197B3
:1030B00078F2EFE9FFE03197F1F700C00000F7CFB9
:1030C000089FB001099F700D1124C901860F971F39
:1030D0002981EA01E4CF0E94B017BACFCDB7DEB79D
:1030E000E6E00C942429982F9F709A50963020F097
:1030F000805D0E94B0170895895AFBCFEF92FF922E
:103100000F931F93CF93DF938C01F62E8AE0E82E66
:10311000F8018491882309F454C0813009F04DC02E
:10312000E8012196FE018491813091F42196FE01FF
:1031300084910E9407058E010F5F1F4F8F2D8150D4
:1031400038F3EFE9FFE03197F1F700C00000F7CF67
:10315000823039F4E8012296FE0184910E947104C4
:10316000EACF833039F4E8012296FE0184910E946F
:10317000BD04E1CF8430F9F6E8012296FE012491E6
:1031800090E080E0FE0131962053330B2A30310568
:1031900048F0019780F2EFE9FFE03197F1F700C0C6
:1031A0000000F7CFE89EA001E99E500D1124C9014F
:1031B000840F951F2491EF01E5CF0E94B017E8011D
:1031C000BACFCDB7DEB7E6E00C94242984E00895A9
:1031D00050E0440F551F96E0699F400D511D11248A
:1031E0009CE0899F400D511D1124CA0187960895C6
:1031F0000F931F93CF93DF938430C8F46230B8F4F9
:103200004330A8F40E94E8188C010E944929C82F75
:10321000D0E0DC2FCC27C80101960E9449299E01ED
:10322000282BC901DF91CF911F910F91089590E054
:1032300080E0F8CF0F931F93CF93DF93122F032FCC
:10324000843078F4623068F4433058F40E94E8180F
:10325000EC01602F0E945729612FCE0101960E9438
:103260005729DF91CF911F910F910895B0E0A0E011
:10327000ECE3F9E10C94042989EFC82E80E0D82E04
:10328000D0E0C0E0760100E01CC00E94770221E09F
:1032900030E08C171D0621F01CF0F50125913491CA
:1032A000412F602F8C2F0E941A1982E0A80EB11CAA
:1032B0001F5F133051F786E0E80EF11C013021F05A
:1032C00001E0570110E0E1CF21968CE0C80ED11C3F
:1032D000C430D105B9F6CDB7DEB7EAE00C942029A9
:1032E000EF92FF920F931F93CF93DF93EC018A012C
:1032F0007C01E60EF71ECE018796CE15DF0529F478
:10330000CDB7DEB7E6E00C942429C033D10540F4F4
:103310000E944929F80180830F5F1F4F2196EBCF50
:10332000F8011082F9CFB0E0A0E0E9E9F9E10C94EE
:1033300006297C016A018C01060F171FEC01CE01E2
:103340008796C017D10729F4CDB7DEB7E8E00C9413
:103350002229C033D10540F4FE01EE19FF09EC0D1E
:10336000FD1D60810E9457292196E9CF462F8430A8
:1033700040F4723030F4633020F4672F0E94F81864
:10338000089590E080E0089580E1089589EA93E04F
:103390000895EF92FF920F931F93CF93DF93EC0169
:1033A0008A017C01E60EF71ECE01895A9F4FCE1589
:1033B000DF0529F4CDB7DEB7E6E00C942429C93A3D
:1033C00023E0D20740F40E944929F80180830F5F6F
:1033D0001F4F2196E9CFF8011082F9CFB0E0A0E0AD
:1033E000E4EFF9E10C9406297C016A018C01060FD7
:1033F000171FEC01CE01895A9F4FC017D10729F43E
:10340000CDB7DEB7E8E00C942229C93A23E0D20711
:1034100040F4FE01EE19FF09EC0DFD1D60810E94D4
:1034200057292196E7CFCF93DF93C7E5D0E060E03F
:10343000CE010E9457292196C11584E0D807B9F71B
:10344000DF91CF910895A4E0B0E0E9E2FAE10C94B5
:103450000729F82E8FE08F1548F18FEF93E00E9437
:103460004929811123C007E510E0F11023C019821A
:103470001A821B821C82DD24D39478018FEFE81A14
:10348000F80AC8010E94492989831A82882371F0A9
:103490009FEF980F9330D8F48A83D9820E5F1F4F25
:1034A000C7010E9449298B83811112C02496E7E04D
:1034B0000C942329011584E01807C1F3C8010E9468
:1034C0004929811101C0FA940F5F1F4FCECF8701A8
:1034D00060E0CE0101960E940D18CFCFCF93DF930D
:1034E000EB0186319C4511F50E94C20B9A8199230C
:1034F00099F08A7A91E009F490E09093500281115A
:1035000009C089E20E949A0B0E94060C80E0DF91BC
:10351000CF91089585E3F6CF80915002811104C0C8
:1035200089E20E94A20BF0CF85E3FBCF81E0EFCFD1
:103530000F931F93CF93DF93C42FD22FFC0182816F
:103540008823C9F0409353020E942E1D909352028B
:103550008093510280E28C0F883040F4C77081E084
:1035600001C0880FCA95EAF70E941005DF91CF913C
:103570001F910F91089510915302141332C080913E
:103580005102909152020E94461D883C910548F5D7
:10359000C0E2CD0F1D17B9F080E2810F883040F4F2
:1035A000177081E001C0880F1A95EAF70E9417058D
:1035B000C83048F481E09D2F977001C0880F9A951C
:1035C000EAF70E941005802F0E940705C83070F6A8
:1035D000D77081E001C0880FDA95EAF70E941705DD
:1035E000C5CF80E28C0F883008F6C77081E001C03B
:1035F000880FCA95EAF7F2CF0F939C01CB01233FC6
:103600004CE5340759F1A8F4283DFCE53F0701F1EA
:10361000293D4CE53407D1F1273D3C4591F406E2C4
:1036200021EE41EE67ED7CE50E94981A80E00F9153
:103630000895253FFCE53F07E9F0B0F0263F3C4503
:10364000F9F0FC018281882339F110925302EFCF07
:1036500007E225EE45EE68ED7CE5E6CF06E221EED9
:1036600040EE63EF7CE5E0CF07E225EE44EE64EF49
:103670007CE5DACF06E221EE42EE65EF7CE5D4CFC1
:1036800007E225EE46EE66EF7CE5CECF08E221E0CC
:1036900045EE69ED7CE5C8CF81E0C9CF9093AB01E1
:1036A0008093AA0108959093590280935802089537
:1036B000E0915802F0915902309729F00190F08181
:1036C000E02D0995089580E008950E94581B089503
:1036D000E0915802F0915902309799F0209122011F
:1036E000222359F02091810227FF07C0DC012C9191
:1036F00011962C93119726E02C930280F381E02DF4
:1037000009950895E0915802F0915902309739F0E7
:1037100022E0DC012C930480F581E02D09950895C9
:1037200020915602309157022817390771F0909373
:10373000570280935602E0915802F0915902309757
:1037400021F00680F781E02D09950895209154021B
:10375000309155022817390771F0909355028093E4
:103760005402E0915802F0915902309721F0008400
:10377000F185E02D09950895FC0132968091220192
:10378000882321F0809181029EE187FF96E080E00E
:10379000915008F4089521912223D1F38F5FF8CF3F
:1037A000662301F1209122012223F1F02091810270
:1037B00027FF1AC0462F4695469546954E3190F400
:1037C000677021E030E002C0220F331F6A95E2F7F4
:1037D000840F911DFC01828190E02823392381E030
:1037E000232B69F480E00895FC013296089621911C
:1037F000261721F0E817F907D1F7F4CF81E00895F3
:103800009C01FC0132969FEF80E04191461751F0F8
:103810009F3F19F4411101C0982F8F5F8630A9F79F
:103820009F3F09F40895290F311D97FD3A95F9013D
:1038300062830895FC01329608962191261303C0F5
:10384000DF0111971C92E817F907B9F70895E62FE1
:10385000E695E695E695EE3168F4E80FF92FF11D4F
:10386000677021E030E001C0220F6A95EAF782819B
:10387000822B82830895E62FE695E695E695EE3154
:1038800070F4E80FF92FF11D677021E030E001C0FE
:10389000220F6A95EAF720958281282322830895D2
:1038A00020912201222339F02091810227FF03C0B9
:1038B0000E94271C08950E94001C08952091220157
:1038C000222339F02091810227FF03C00E943B1C74
:1038D00008950E941A1C0895FC01329680912201DD
:1038E000882351F08091810287FF06C08EE1DF01BD
:1038F0001D928A95E9F7089586E0F9CF46E050E0F9
:103900000E94332921E0892B09F420E0822F0895B9
:1039100008950E94881C0895811106C081E080935B
:103920005A020E94891C089582E0F9CF83E08093B7
:103930005A020E94891C08950E948C1C089581E0FF
:1039400080935A020E94891C08950E949F1C08952A
:10395000089508950E94A91C0895089508950E944D
:10396000A81C08950E94AD1C0E94B9100E94AE1CB4
:1039700080E00E944A1091E0811107C081E00E941E
:103980004A1091E0811101C090E0892F089585B718
:10399000806885BF85B7806885BF08951F921FB670
:1039A0001F9211248F939F93AF93BF9380915B02DB
:1039B000811113C080918E0290918F02A09190028C
:1039C000B09191024196A11DB11D80938E029093FA
:1039D0008F02A0939002B0939102BF91AF919F91FB
:1039E0008F911F901FBE1F90189580918303843084
:1039F00031F10E94F70310925B0288E190E020E42D
:103A00000FB6F894A895809360000FBE20936000D5
:103A100083B7817F846083BF83B7816083BF7894DD
:103A2000889583B78E7F83BF0FB6F894A895809151
:103A30006000886180936000109260000FBE08955E
:103A40000E9472070E94FC03089582E084BD93E007
:103A500095BD9AEF97BD80936E0008952FB7F894A7
:103A600080918E0290918F02A0919002B09191026C
:103A70002FBF08952FB7F89460918E0270918F0236
:103A800080919002909191022FBF08959C014FB7B1
:103A9000F89480918E0290918F02A0919002B09143
:103AA00091024FBF821B930B089578941F921FB60B
:103AB0001F9211248F939F93AF93BF9380918E0297
:103AC00090918F02A0919002B09191020196A11D58
:103AD000B11D80938E0290938F02A0939002B093B9
:103AE0009102BF91AF919F918F911F901FBE1F9028
:103AF000189587E797E7909301088093000888E17D
:103B00009AE00FB6F894A895809360000FBE90934A
:103B10006000FFCF88E19AE00FB6F894A8958093F3
:103B200060000FBE90936000FFCF881F8827881F1A
:103B3000089591E0883F08F490E0892F0895982F28
:103B4000907F903BE9F040F49039D1F0903AC1F089
:103B50009038B1F080E00895903D19F020F4903C49
:103B6000C9F782E00895903E59F0903F99F7815F40
:103B70008F3080F7E82FF0E0E557FE4F8081089501
:103B800083E00895FC01738362830895FC01758FBF
:103B9000648F0895CF93DF93EC011DA21FA21EA294
:103BA000BC01685D7F4F40EC88519F4F0E94BA1F57
:103BB0001B821A821D821C821F821E821986188611
:103BC0001B861A861D861C861F861E86198A188AE1
:103BD0001B8A1A8A1D8A1C8A1F8A1E8A198E188EB1
:103BE0001B8E1A8E1D8E1C8E1F8E1E8E19A218A261
:103BF000DF91CF910895EF92FF920F931F93CF9390
:103C0000DF93EA018A01060F111D88519F4F7C0145
:103C1000C017D10729F4CDB7DEB7E6E00C9424290C
:103C20006991C7010E94C11FF3CFFC0171836083BA
:103C30000895FC0171A360A30895A3E0B0E0E3E25E
:103C4000FEE10C9404297C016B01142FB22EA02EEE
:103C5000DC0195968C919597843059F55A96ED91A3
:103C6000FC91309799F1CB01019763E070E00E94DD
:103C7000C728CB01880F991F860F971F4983BA82E7
:103C80000B834C2D481B9E012F5F3F4FBC01C7018A
:103C90000995D7015E96ED91FC91309731F00A2D90
:103CA0002B2D412FB601C70109952396EAE00C940C
:103CB00020296230710509F455C06330710599F00F
:103CC0006130710509F481C0D12CC12CD7015C96FB
:103CD000ED91FC913097E9F20A2D2B2D412FB60181
:103CE000C7010995D6CF842F807F803A11F148F41F
:103CF0008038D1F0803951F7D7011496ED91FC91BD
:103D00000AC0803ED9F0803FF1F0803BF9F6D70140
:103D10001296ED91FC913097C9F2123FE9F02A2DED
:103D20004B2D612F6F701BC0D7011696ED91FC9142
:103D3000F2CFD7011896ED91FC91EDCFD7011A96ED
:103D4000ED91FC91E8CF423F09F6D7011C96ED9129
:103D5000FC91309709F4BACF2A2D4B2D62EFC701A1
:103D6000099597CF842F807F803DB1F0803FC9F0C7
:103D7000803C09F0ABCFD7011E96ED91FC913097B6
:103D800009F4A4CF812F8D7F4B2D612F6F70813F60
:103D900089F0C70109957DCFD7015096ED91FC912F
:103DA000EECF433F51F4D7015296ED91FC913097FD
:103DB00009F48CCF4B2D612FECCF413F09F086CF1A
:103DC000D7015496ED91FC91F2CF842F0E94991D5A
:103DD000882359F0D7015696ED91FC91309709F45C
:103DE00075CF612FC701099554CF163F09F06ECFEB
:103DF000D7015896ED91FC91F1CFFF920F931F934D
:103E0000CF93DF93EC01162F862F0E94991D8823F4
:103E100089F0FDA081E08DA300E020E0412F61E06A
:103E200070E0CE010E941D1EFDA2CDB7DEB7E5E019
:103E30000C942529812F0E94951D4DA1882309F4FA
:103E400043C0443029F01AA381E090E09FA38EA3E1
:103E5000812F0E949F1D813051F08823A9F082306C
:103E600089F0833079F01DA21FA21EA2DECF8DA3A0
:103E700000E020E0412F61E070E0CE010E941D1EB5
:103E80001DA2D3CF8DA3D1CF103FB1F0173F59F76B
:103E90002EA13FA1C90163E070E00E94C728FE0186
:103EA000E80FF91F12A3B9016F5F7F4F7FA36EA3C5
:103EB0000CA12BA14AA1E1CF84E08DA31AA381E03C
:103EC00090E09FA38EA3B1CF442309F4AECF2EA1DF
:103ED0003FA1C90163E070E00E94C728FE01E80F1E
:103EE000F91F12A3B9016F5F7F4F7FA36EA38130CB
:103EF000910569F0029709F098CF0CA12BA14AA176
:103F0000CE010E941D1E8DA18430C9F68ECF423095
:103F100009F08BCF00E0F2CFB0E0A0E0E2E9FFE1F2
:103F20000C940629EC01E8A1F9A1309709F0099554
:103F30006E0188EEC80ED11CC6010E94F01F10E071
:103F400000E0E82EF12C0E151F0528F0CDB7DEB7E6
:103F5000E8E00C94222960E0C6010E940420682F4A
:103F6000CE010E94FD1E61E0C6010E9414200F5F79
:103F70001F4FE9CFFC014283748363831182108257
:103F800008951F93CF93DF93EC01162F0E942C20EE
:103F9000482F298130E0C90101966A8170E00E94B2
:103FA000DB2858815817190641F4842F0E942F20CE
:103FB00080E0DF91CF911F9108958B819C81280F24
:103FC000391FF9011083898190E001966A8170E0C0
:103FD0000E94DB288983842F0E942F2081E0E9CF73
:103FE000CF93DF93EC010E942C20998128819217B6
:103FF00040F0C92FC21B0E942F208C2FDF91CF9140
:104000000895CA819C0FF5CFFC018081860F992706
:10401000991F628170E00E94DB2823813481280F80
:10402000391FF901808108951F93CF93DF93EC012D
:10403000162F0E942C20282F8881810F9927991FE5
:104040006A8170E00E94DB288883822F0E942F20E3
:10405000DF91CF911F9108958FB7F89408958FBF86
:10406000089508950895A7E0B0E0E9E3F0E20C9424
:104070000A298C01CE0101960E940023811104C0FF
:104080002796E4E00C9426298A810E949F1D9A813C
:104090009D839B819E839C819F8381110AC089811E
:1040A000843079F0873069F0863069F0853011F717
:1040B00081E0AE014B5F5F4F682FC8010E94FB1D7E
:1040C000D9CF83E0F6CF82E0F4CFA4E0B0E0EBE616
:1040D000F0E20C9407297B01142FD22E4A832B8304
:1040E0000C83842F0E949F1D811122C082E0E8165C
:1040F000F104C9F083E0E816F10441F081E0E8162C
:10410000F10469F485E0173F21F404C087E0073F1C
:1041100009F084E08983CE0101960E94FA22249658
:10412000E7E00C94232987EFD812F3CF86E0F2CF93
:1041300012951F701983EFCF82E992E00E94CA1D89
:1041400065E670E282E992E00E94151E63E370E288
:1041500082E992E00E94191E61E370E282E992E036
:104160000E94C61D62E370E282E992E00E94C21DD5
:1041700008959B01409183034430C1F4FC01918177
:104180009F709093E90050E040E064E070E0C90166
:104190000E94F12381110BC09091E80095FD07C0AA
:1041A0009091E8009E779093E800089582E008954A
:1041B00020918303243099F4FC0181818F708093D6
:1041C000E9009091F3008091F200892B51F08091E9
:1041D000E8008E778093E8000E949F25089582E092
:1041E000089580E00895FC0180918303843059F4A0
:1041F00091819F709093E9008091E80080FF03C057
:10420000CF010E94D82008959B0140918303443040
:1042100011F080E00895FC0196819F709093E90071
:104220008091E80082FFF5CF8091E80085FFF1CF13
:1042300050E040E064E070E0C9010E9440248091B9
:10424000E80085FD05C08091E8008B778093E80049
:1042500081E0089580917F02089508959C0184E093
:104260008093E9009FEF8091E800915085FD06C0A2
:1042700085ED8A95F1F700009111F5CF8091E80066
:1042800085FF0CC050E040E066E070E0C9010E948C
:10429000F1238091E8008E778093E8000895CF9312
:1042A000DF93EC01809122018823B1F1809181029A
:1042B00087FF32C060E284E08093E9008FEF909145
:1042C000E800815095FD06C095ED9A95F1F7000044
:1042D0008111F5CF8091E80085FF1BC080912201FC
:1042E00070E050E040E0811104C050E040E068E040
:1042F00070E0CE010E94F1238091E8008E778093D8
:10430000E80080E2FE01AFE5B2E001900D928A95EF
:10431000E1F7DF91CF91089568E081E0CDCF809300
:104320005C0270935E0260935D028091830384302F
:10433000F9F48093E9008FEF9091E800815095FDAA
:1043400006C095ED9A95F1F700008111F5CF8091A7
:10435000E80085FF0DC050E040E063E070E08CE5D0
:1043600092E00E94F1238091E8008E778093E8002C
:104370000895BC0184E00E948F210895BC0183E070
:104380000E948F210895CF93FC01603221F5809126
:104390008303843001F5C091E900CF702091EC00D7
:1043A000922F917020FD90E8C92B82E08093E90064
:1043B0008091E80080FF0CC050E040E060E270E0D7
:1043C000CF010E94F1238091E8008E778093E8006E
:1043D000CF70C093E900CF9108958091820381113D
:1043E00009C00E94D0250E942D268091E2008460A1
:1043F0008093E20008951092820308950E949F1C0A
:10440000089560917F0381E0611101C080E00E9406
:10441000961C08959091830381E0943009F080E028
:1044200060917F030E949C1C089542E061EC81E052
:104430000E944C2542E261EC84E00E944C2542E25D
:1044400061EC82E00E944C2542E260EC83E00E9435
:104450004C2542E361E885E00E944C2542E361E897
:1044600086E00E944C259091830381E0943009F00E
:1044700080E060917F030E948C1C089580918503E9
:10448000833009F463C030F48130E1F1823009F403
:10449000A0C008958A3009F48CC08B3009F471C033
:1044A000893009F052C080918403813209F04DC0F7
:1044B0008091880390918903009719F0029709F081
:1044C00044C08091E800877F8093E8008091E800F5
:1044D00082FF37C09091F3008091F200029731F48F
:1044E0008091F100813011F0863021F48091F1004B
:1044F00080937F028091E8008B778093E8000E9490
:10450000802523C080918403813AF9F48091E800EA
:10451000877F8093E8008091880390918903892B9D
:1045200061F460E28FE592E070E00E948F24809158
:10453000E8008B778093E800089560E090E080E0E9
:10454000F3CF809183038111C1CF089580918403BB
:10455000813AD9F78091880390918903892BA9F733
:104560008091E800877F8093E8008091E80080FFD9
:10457000FCCF809122018093F1008091E8008E773A
:10458000BCCF80918403813201F7809188039091A0
:104590008903892BD1F68091E800877F8093E8001A
:1045A0000E94802580918603809322010E947207D9
:1045B000089580918403813241F68091E800877FDD
:1045C0008093E8000E948025809187038093800279
:1045D000089580918403813A09F0B7CF8091E80073
:1045E000877F8093E8008091E80080FFFCCF809176
:1045F0008002C1CFBC018AE091E00E94B9200895F9
:10460000BC018AE091E00E94042108950E949C2050
:1046100084B7877F84BF0FB6F894A8958091600017
:10462000886180936000109260000FBE80E890E087
:104630000FB6F89480936100909361000FBE0E94C2
:10464000A51C08950E94D0250E942D26E2EEF0E0E0
:1046500080818460808378940E94AC28089586E1EC
:1046600091E00E94531B089580918303853031F4BB
:1046700080918303853019F00E94201D08950E94C7
:10468000F51C80918103882399F30E94B21C882332
:1046900079F30E94DB230E947207EACFA0E2B0E028
:1046A000E4E5F3E20C940C298AE091E00E94F32007
:1046B00080918303843009F583E08093E900809141
:1046C000E80082FF1AC08091E80090E085FF09C0F1
:1046D00050E040E060E270E0CE0101960E9440248C
:1046E00091E08091E8008B778093E800992329F08E
:1046F00060E2CE0101960E947214A096E2E00C9452
:1047000028290E9484230895292F33272330310537
:1047100021F168F42130310509F443C0223031051C
:1047200009F444C090E080E030E020E026C021326F
:10473000310551F122323105A9F76330710590F747
:10474000FB01EE0FFF1FE356FE4F208131816656BD
:104750007E4FFB01808190E010C099278130910548
:1047600081F0009729F00297E9F6E9EDF1E002C047
:10477000E7E3F2E0849190E09F01FA013183208326
:104780000895E3EFF1E0F6CF6330710558F6660F58
:10479000771FFB01ED55FE4F2081318189E090E0CC
:1047A000ECCF82E190E02AEF32E0E7CF8FEB90E0B0
:1047B0002BE332E0E2CF80E189BD82E189BD09B41B
:1047C00000FEFDCF8091D8008F7D8093D80080912E
:1047D000E00082608093E0008091E00081FDFCCFEA
:1047E0000895AF92BF92CF92DF92FF920F931F93E3
:1047F000CF93DF936C01EB018A010E949F25F82E75
:10480000811123C00115110539F0F80180819181D2
:10481000C81BD90BC80ED91EB12CA12C2097A9F00A
:104820008091E80085FD22C08091E8008E7780931A
:10483000E80001151105A1F0F80180819181A80E11
:10484000B91EB182A08285E0F82E8F2DDF91CF9125
:104850001F910F91FF90DF90CF90BF90AF90089580
:104860000E949F258823D1F2F82EEFCFF601819187
:104870006F018093F1002197FFEFAF1ABF0ACECFEF
:10488000AF92BF92CF92DF92FF920F931F93CF937D
:10489000DF936C01EB018A010E949F25F82E8111A4
:1048A00023C00115110539F0F80180819181C81BE1
:1048B000D90BC80ED91EB12CA12C2097A9F080913C
:1048C000E80085FD22C08091E8008B778093E800A6
:1048D00001151105A1F0F80180819181A80EB91E82
:1048E000B182A08285E0F82E8F2DDF91CF911F91AC
:1048F0000F91FF90DF90CF90BF90AF9008950E94EE
:104900009F258823D1F2F82EEFCF8091F100F60198
:1049100081936F012197FFEFAF1ABF0ACECFFC0141
:1049200080918A0390918B0386179707A0F06115F9
:10493000710529F49091E8009E779093E80090E04B
:104940006115710551F4911108C08091E80082FF52
:1049500034C080E00895BC01F2CF809183038823A6
:10496000C1F18530C1F18091E80083FD30C08091B4
:10497000E80082FDEACF8091E80080FFE1CF8091DE
:10498000F3002091F200382F6115710519F02830DD
:10499000310558F091E02830310509F090E0209180
:1049A000E8002E772093E800CBCF81918093F1002F
:1049B000615071092F5F3F4FE7CF809183038823B8
:1049C00041F0853041F08091E80083FFBECF81E067
:1049D000089582E0089583E00895FC0180918A03A0
:1049E00090918B0386179707A0F06115710529F444
:1049F0008091E8008E778093E80090E06115710562
:104A000051F4911108C08091E80082FF35C080E028
:104A10000895BC01F2CF809183038823C9F18530CA
:104A2000C9F18091E80083FD31C08091E80082FDEA
:104A3000EACF8091E80080FFE1CF8091F3002091E0
:104A4000F200382F6115710519F02830310558F042
:104A500091E02830310509F090E08091E8008E77F0
:104A60008093E800CBCF84918093F1003196615020
:104A700071092F5F3F4FE6CF80918303882341F078
:104A8000853041F08091E80083FFBDCF81E008953B
:104A900082E0089583E00895982F973028F08F7072
:104AA0008093E90081E008959093E900242F762F08
:104AB00050E0981731F07091EC002091ED0050918A
:104AC000F00021FD02C09F5FE8CF3091EB003E7FF8
:104AD0003093EB003091ED003D7F3093ED0030914D
:104AE000EB0031603093EB007093EC002093ED000D
:104AF0005093F0002091EE0027FDE5CF80E008956F
:104B00008091840387FF13C08091E80082FF06C074
:104B10008091E8008B778093E80004C08091830344
:104B20008111F2CF0895809183038823D9F3809176
:104B3000E80080FFF8CF8091E8008E77ECCF2091DD
:104B4000E4003091E50095E6A9012091EC00822F68
:104B5000817020FF06C08091E80080FF06C080E0E1
:104B600008952091E80022FD1AC0809183038823D4
:104B700089F0853089F08091EB0085FD0FC0209190
:104B8000E4003091E50042175307F9F29150E1F645
:104B900084E0089582E0089583E0089581E0089517
:104BA0000E943F260E944726E0EEF0E0808181606F
:104BB0008083E8EDF0E080818F77808319BCA7EDDA
:104BC000B0E08C918E7F8C9380818F7E8083109259
:104BD000820308950F931F93CF93DF930E943F2684
:104BE0000E944726C8EDD0E088818F77888388812E
:104BF0008068888388818F7D888319BC10928303A5
:104C000010927F03109281031092800300EE10E057
:104C1000F80180818B7F808388818160888342E076
:104C200060E080E00E944C25E1EEF0E080818E7F24
:104C30008083E2EEF0E08081816080838081886003
:104C40008083F80180818E7F808388818061888362
:104C5000DF91CF911F910F910895E8EDF0E08081F1
:104C60008F7E8083E7EDF0E080818160808384E047
:104C700082BF81E0809382030E94EA250895E8EDD7
:104C8000F0E080818E7F80831092E2000895109280
:104C9000DA001092E10008951F920F920FB60F9262
:104CA00011242F933F934F935F936F937F938F9331
:104CB0009F93AF93BF93EF93FF938091E10082FFA7
:104CC0000BC08091E20082FF07C08091E1008B7FE2
:104CD0008093E1000E94AB288091DA0080FF19C028
:104CE0008091D80080FF15C08091DA008E7F80937C
:104CF000DA008091D90080FF96C080E189BD82E111
:104D000089BD09B400FEFDCF81E0809383030E943A
:104D1000ED218091E10080FF19C08091E20080FFC9
:104D200015C08091E2008E7F8093E2008091E200C6
:104D300080618093E2008091D80080628093D800E7
:104D400019BC85E0809383030E9401228091E100D9
:104D500084FF2BC08091E20084FF27C080E189BDE1
:104D600082E189BD89B5982F917080FFFBCF80913A
:104D7000D8008F7D8093D8008091E1008F7E809352
:104D8000E1008091E2008F7E8093E2008091E2005A
:104D900081608093E20080917F03882309F449C0F9
:104DA00084E0809383030E940A228091E10083FFC4
:104DB00029C08091E20083FF25C08091E100877FB8
:104DC0008093E10082E08093830310927F038091BF
:104DD000E1008E7F8093E1008091E2008E7F8093DE
:104DE000E2008091E20080618093E20042E060E0B6
:104DF00080E00E944C258091F00088608093F00054
:104E00000E94FE21FF91EF91BF91AF919F918F91F1
:104E10007F916F915F914F913F912F910F900FBEB6
:104E20000F901F90189519BC109283030E94FB21CC
:104E300070CF8091E30087FD93E090938303B3CF1D
:104E40001F920F920FB60F9211242F933F934F93FF
:104E50005F936F937F938F939F93AF93BF93CF9302
:104E6000DF93EF93FF93D091E900DF708091EC0026
:104E7000C82FC17080FDC0E81092E9008091F00059
:104E8000877F8093F00078940E9464271092E90055
:104E90008091F00088608093F000CD2BCF70C0939C
:104EA000E900FF91EF91DF91CF91BF91AF919F9179
:104EB0008F917F916F915F914F913F912F910F90C3
:104EC0000FBE0F901F901895AAE2B0E0EAE6F7E255
:104ED0000C940B2984E893E02091F100FC012193CC
:104EE000CF01F3E08C389F07B9F70E943E228091F2
:104EF000E80083FF1EC180918403909185039A305E
:104F000008F017C1E92FF0E0EB54F64D0C94EF28B0
:104F1000803899F0823809F00CC1809188038F7035
:104F2000873008F006C18093E9008091EB0085FB93
:104F3000882780F91092E90006C080918003909143
:104F40008103911182609091E800977F9093E8002F
:104F50008093F1001092F1008091E8008E77E5C017
:104F6000882309F4D3C0823009F0E3C0809186031E
:104F70008111D6C0809188038F702FEF280F2630C3
:104F800008F0D7C08093E9002091EB0020FFC8C053
:104F9000933031F48091EB0080628093EB00C0C0CD
:104FA0009091EB0090619093EB0021E030E001C024
:104FB000220F8A95EAF72093EA001092EA00809186
:104FC000EB008860EACF8111B4C0109186031F778F
:104FD0008091E3008078812B8093E3008091E8004A
:104FE000877F8093E8000E9480258091E80080FF01
:104FF000FCCF8091E30080688093E30082E0111190
:1050000083E08093830395C08058823008F091C07C
:1050100080918603909187038C3D23E09207A1F550
:1050200083E08A838AE289834FB7F894DE0113967E
:1050300020E03EE051E2E32FF0E050935700E4918E
:1050400020FF03C0E295EF703F5FEF708E2F90E07E
:10505000EA30C0F0C7968D939D932F5F243159F7A6
:105060004FBF8091E800877F8093E8006AE270E09C
:10507000CE0101960E948F248091E8008B77809367
:10508000E80057C0C096E7CF60918803709189030C
:10509000AE014F5F5F4F0E948123BC01892B09F451
:1050A00048C09091E800977F9093E80089819A81A9
:1050B0000E94ED24E1CF8038E1F58091E800877F00
:1050C0008093E80080917F038093F10045CF8111A8
:1050D00030C090918603923060F58091E800877F20
:1050E0008093E80090937F030E94802580917F0346
:1050F000882311F084E005C08091E30087FDFACF9A
:1051000081E0809383030E94152213C0809186035F
:10511000813079F481E0933009F080E0809381035D
:105120001092E9008091E800877F8093E8000E9458
:1051300080258091E80083FF0AC08091E800877F86
:105140008093E8008091EB0080628093EB00AA9648
:10515000E3E00C9427290895CF938091830388235B
:10516000A1F0C091E900CF709091EC00892F81707F
:1051700090FD80E8C82B1092E9008091E80083FD43
:105180000E946427CF70C093E900CF910895AA1BB5
:10519000BB1B51E107C0AA1FBB1FA617B70710F022
:1051A000A61BB70B881F991F5A95A9F78095909554
:1051B000BC01CD01089597FB072E16F4009407D08B
:1051C00077FD09D00E94C72807FC05D03EF49095D2
:1051D00081959F4F0895709561957F4F0895EE0FCB
:1051E000FF1F0590F491E02D099469279627692700
:1051F00078278727782708952F923F924F925F92C2
:105200006F927F928F929F92AF92BF92CF92DF92D6
:10521000EF92FF920F931F93CF93DF93CDB7DEB73B
:10522000CA1BDB0B0FB6F894DEBF0FBECDBF0994CF
:105230002A88398848885F846E847D848C849B8426
:10524000AA84B984C884DF80EE80FD800C811B8134
:10525000AA81B981CE0FD11D0FB6F894DEBF0FBE63
:10526000CDBFED010895FB01DC0104C08D910190DB
:10527000801921F441505040C8F7881B990B0895BC
:10528000FB01DC0102C001900D9241505040D8F763
:105290000895F999FECF92BD81BDF89A992780B5FE
:1052A0000895A8E1B0E042E050E00C947D29262F5B
:1052B000F999FECF92BD81BDF89A019700B402160C
:1052C00039F01FBA20BD0FB6F894FA9AF99A0FBEBA
:1052D00008950396272F0E9458290E945729252FA9
:1052E0000E945829242F0C9458290196272F0E9498
:1052F00058290C945729DC01CB01FC01F999FECF08
:1053000006C0F2BDE1BDF89A319600B40D9241504D
:105310005040B8F70895F894FFCF3E0247024D027F
:10532000530259025F0265026B0271025905590569
:105330008A058A0517063306B905B9053E06A5068E
:10534000B406B40681148C14AD14B914C414CF146B
:10535000D214D214D214D214D214D514D914E11404
:10536000EE14FB14FE1401150E158827B02799289A
:0E537000B0279928E327042899285B2867288E
:10537E001102280850011E0A140104854000000184
:10538E000640000001002A214F212E21BE21B92105
:10539E002D2101E200E900EA00B500B600B700CD0C
:1053AE00008301CC008A0192019401210223022480
:1053BE00022502260227022A02B300B4006F0070F3
:1053CE0000818283E200E900EA00B500B600B70072
:1053DE00CD008301CC008A019201940121022302A7
:1053EE0024022502260227022A02B300B4006F000F
:1053FE007000818283F5F6F731333202030200002A
:10540E00010001010101010001014022B6E4030C7B
:0A541E00032E034D02660286020011
:00000001FF
